{
  "contractName": "ERC721r",
  "abi": [
    {
      "inputs": [
        {
          "internalType": "string",
          "name": "name_",
          "type": "string"
        },
        {
          "internalType": "string",
          "name": "symbol_",
          "type": "string"
        },
        {
          "internalType": "uint256",
          "name": "maxSupply_",
          "type": "uint256"
        }
      ],
      "stateMutability": "nonpayable",
      "type": "constructor"
    },
    {
      "anonymous": false,
      "inputs": [
        {
          "indexed": true,
          "internalType": "address",
          "name": "owner",
          "type": "address"
        },
        {
          "indexed": true,
          "internalType": "address",
          "name": "approved",
          "type": "address"
        },
        {
          "indexed": true,
          "internalType": "uint256",
          "name": "tokenId",
          "type": "uint256"
        }
      ],
      "name": "Approval",
      "type": "event"
    },
    {
      "anonymous": false,
      "inputs": [
        {
          "indexed": true,
          "internalType": "address",
          "name": "owner",
          "type": "address"
        },
        {
          "indexed": true,
          "internalType": "address",
          "name": "operator",
          "type": "address"
        },
        {
          "indexed": false,
          "internalType": "bool",
          "name": "approved",
          "type": "bool"
        }
      ],
      "name": "ApprovalForAll",
      "type": "event"
    },
    {
      "anonymous": false,
      "inputs": [
        {
          "indexed": true,
          "internalType": "address",
          "name": "from",
          "type": "address"
        },
        {
          "indexed": true,
          "internalType": "address",
          "name": "to",
          "type": "address"
        },
        {
          "indexed": true,
          "internalType": "uint256",
          "name": "tokenId",
          "type": "uint256"
        }
      ],
      "name": "Transfer",
      "type": "event"
    },
    {
      "inputs": [
        {
          "internalType": "bytes4",
          "name": "interfaceId",
          "type": "bytes4"
        }
      ],
      "name": "supportsInterface",
      "outputs": [
        {
          "internalType": "bool",
          "name": "",
          "type": "bool"
        }
      ],
      "stateMutability": "view",
      "type": "function"
    },
    {
      "inputs": [],
      "name": "totalSupply",
      "outputs": [
        {
          "internalType": "uint256",
          "name": "",
          "type": "uint256"
        }
      ],
      "stateMutability": "view",
      "type": "function"
    },
    {
      "inputs": [],
      "name": "maxSupply",
      "outputs": [
        {
          "internalType": "uint256",
          "name": "",
          "type": "uint256"
        }
      ],
      "stateMutability": "view",
      "type": "function"
    },
    {
      "inputs": [
        {
          "internalType": "address",
          "name": "owner",
          "type": "address"
        }
      ],
      "name": "balanceOf",
      "outputs": [
        {
          "internalType": "uint256",
          "name": "",
          "type": "uint256"
        }
      ],
      "stateMutability": "view",
      "type": "function"
    },
    {
      "inputs": [
        {
          "internalType": "uint256",
          "name": "tokenId",
          "type": "uint256"
        }
      ],
      "name": "ownerOf",
      "outputs": [
        {
          "internalType": "address",
          "name": "",
          "type": "address"
        }
      ],
      "stateMutability": "view",
      "type": "function"
    },
    {
      "inputs": [],
      "name": "name",
      "outputs": [
        {
          "internalType": "string",
          "name": "",
          "type": "string"
        }
      ],
      "stateMutability": "view",
      "type": "function"
    },
    {
      "inputs": [],
      "name": "symbol",
      "outputs": [
        {
          "internalType": "string",
          "name": "",
          "type": "string"
        }
      ],
      "stateMutability": "view",
      "type": "function"
    },
    {
      "inputs": [
        {
          "internalType": "uint256",
          "name": "tokenId",
          "type": "uint256"
        }
      ],
      "name": "tokenURI",
      "outputs": [
        {
          "internalType": "string",
          "name": "",
          "type": "string"
        }
      ],
      "stateMutability": "view",
      "type": "function"
    },
    {
      "inputs": [
        {
          "internalType": "address",
          "name": "to",
          "type": "address"
        },
        {
          "internalType": "uint256",
          "name": "tokenId",
          "type": "uint256"
        }
      ],
      "name": "approve",
      "outputs": [],
      "stateMutability": "nonpayable",
      "type": "function"
    },
    {
      "inputs": [
        {
          "internalType": "uint256",
          "name": "tokenId",
          "type": "uint256"
        }
      ],
      "name": "getApproved",
      "outputs": [
        {
          "internalType": "address",
          "name": "",
          "type": "address"
        }
      ],
      "stateMutability": "view",
      "type": "function"
    },
    {
      "inputs": [
        {
          "internalType": "address",
          "name": "operator",
          "type": "address"
        },
        {
          "internalType": "bool",
          "name": "approved",
          "type": "bool"
        }
      ],
      "name": "setApprovalForAll",
      "outputs": [],
      "stateMutability": "nonpayable",
      "type": "function"
    },
    {
      "inputs": [
        {
          "internalType": "address",
          "name": "owner",
          "type": "address"
        },
        {
          "internalType": "address",
          "name": "operator",
          "type": "address"
        }
      ],
      "name": "isApprovedForAll",
      "outputs": [
        {
          "internalType": "bool",
          "name": "",
          "type": "bool"
        }
      ],
      "stateMutability": "view",
      "type": "function"
    },
    {
      "inputs": [
        {
          "internalType": "address",
          "name": "from",
          "type": "address"
        },
        {
          "internalType": "address",
          "name": "to",
          "type": "address"
        },
        {
          "internalType": "uint256",
          "name": "tokenId",
          "type": "uint256"
        }
      ],
      "name": "transferFrom",
      "outputs": [],
      "stateMutability": "nonpayable",
      "type": "function"
    },
    {
      "inputs": [
        {
          "internalType": "address",
          "name": "from",
          "type": "address"
        },
        {
          "internalType": "address",
          "name": "to",
          "type": "address"
        },
        {
          "internalType": "uint256",
          "name": "tokenId",
          "type": "uint256"
        }
      ],
      "name": "safeTransferFrom",
      "outputs": [],
      "stateMutability": "nonpayable",
      "type": "function"
    },
    {
      "inputs": [
        {
          "internalType": "address",
          "name": "from",
          "type": "address"
        },
        {
          "internalType": "address",
          "name": "to",
          "type": "address"
        },
        {
          "internalType": "uint256",
          "name": "tokenId",
          "type": "uint256"
        },
        {
          "internalType": "bytes",
          "name": "_data",
          "type": "bytes"
        }
      ],
      "name": "safeTransferFrom",
      "outputs": [],
      "stateMutability": "nonpayable",
      "type": "function"
    }
  ],
  "bytecode": "0x60a06040523480156200001157600080fd5b5060405162002a7838038062002a78833981810160405281019062000037919062000241565b82600090816200004891906200051c565b5081600190816200005a91906200051c565b5080608081815250508060038190555050505062000603565b6000604051905090565b600080fd5b600080fd5b600080fd5b600080fd5b6000601f19601f8301169050919050565b7f4e487b7100000000000000000000000000000000000000000000000000000000600052604160045260246000fd5b620000dc8262000091565b810181811067ffffffffffffffff82111715620000fe57620000fd620000a2565b5b80604052505050565b60006200011362000073565b9050620001218282620000d1565b919050565b600067ffffffffffffffff821115620001445762000143620000a2565b5b6200014f8262000091565b9050602081019050919050565b60005b838110156200017c5780820151818401526020810190506200015f565b60008484015250505050565b60006200019f620001998462000126565b62000107565b905082815260208101848484011115620001be57620001bd6200008c565b5b620001cb8482856200015c565b509392505050565b600082601f830112620001eb57620001ea62000087565b5b8151620001fd84826020860162000188565b91505092915050565b6000819050919050565b6200021b8162000206565b81146200022757600080fd5b50565b6000815190506200023b8162000210565b92915050565b6000806000606084860312156200025d576200025c6200007d565b5b600084015167ffffffffffffffff8111156200027e576200027d62000082565b5b6200028c86828701620001d3565b935050602084015167ffffffffffffffff811115620002b057620002af62000082565b5b620002be86828701620001d3565b9250506040620002d1868287016200022a565b9150509250925092565b600081519050919050565b7f4e487b7100000000000000000000000000000000000000000000000000000000600052602260045260246000fd5b600060028204905060018216806200032e57607f821691505b602082108103620003445762000343620002e6565b5b50919050565b60008190508160005260206000209050919050565b60006020601f8301049050919050565b600082821b905092915050565b600060088302620003ae7fffffffffffffffffffffffffffffffffffffffffffffffffffffffffffffffff826200036f565b620003ba86836200036f565b95508019841693508086168417925050509392505050565b6000819050919050565b6000620003fd620003f7620003f18462000206565b620003d2565b62000206565b9050919050565b6000819050919050565b6200041983620003dc565b62000431620004288262000404565b8484546200037c565b825550505050565b600090565b6200044862000439565b620004558184846200040e565b505050565b5b818110156200047d57620004716000826200043e565b6001810190506200045b565b5050565b601f821115620004cc5762000496816200034a565b620004a1846200035f565b81016020851015620004b1578190505b620004c9620004c0856200035f565b8301826200045a565b50505b505050565b600082821c905092915050565b6000620004f160001984600802620004d1565b1980831691505092915050565b60006200050c8383620004de565b9150826002028217905092915050565b6200052782620002db565b67ffffffffffffffff811115620005435762000542620000a2565b5b6200054f825462000315565b6200055c82828562000481565b600060209050601f8311600181146200059457600084156200057f578287015190505b6200058b8582620004fe565b865550620005fb565b601f198416620005a4866200034a565b60005b82811015620005ce57848901518255600182019150602085019450602081019050620005a7565b86831015620005ee5784890151620005ea601f891682620004de565b8355505b6001600288020188555050505b505050505050565b60805161245262000626600039600081816106350152610a0001526124526000f3fe608060405234801561001057600080fd5b50600436106100f55760003560e01c80636352211e11610097578063b88d4fde11610066578063b88d4fde14610284578063c87b56dd146102a0578063d5abeb01146102d0578063e985e9c5146102ee576100f5565b80636352211e146101ea57806370a082311461021a57806395d89b411461024a578063a22cb46514610268576100f5565b8063095ea7b3116100d3578063095ea7b31461017857806318160ddd1461019457806323b872dd146101b257806342842e0e146101ce576100f5565b806301ffc9a7146100fa57806306fdde031461012a578063081812fc14610148575b600080fd5b610114600480360381019061010f91906115b3565b61031e565b60405161012191906115fb565b60405180910390f35b610132610400565b60405161013f91906116a6565b60405180910390f35b610162600480360381019061015d91906116fe565b610492565b60405161016f919061176c565b60405180910390f35b610192600480360381019061018d91906117b3565b610517565b005b61019c61062e565b6040516101a99190611802565b60405180910390f35b6101cc60048036038101906101c7919061181d565b610663565b005b6101e860048036038101906101e3919061181d565b6106c3565b005b61020460048036038101906101ff91906116fe565b6106e3565b604051610211919061176c565b60405180910390f35b610234600480360381019061022f9190611870565b610794565b6040516102419190611802565b60405180910390f35b61025261084b565b60405161025f91906116a6565b60405180910390f35b610282600480360381019061027d91906118c9565b6108dd565b005b61029e60048036038101906102999190611a3e565b6108f3565b005b6102ba60048036038101906102b591906116fe565b610955565b6040516102c791906116a6565b60405180910390f35b6102d86109fc565b6040516102e59190611802565b60405180910390f35b61030860048036038101906103039190611ac1565b610a24565b60405161031591906115fb565b60405180910390f35b60007f80ac58cd000000000000000000000000000000000000000000000000000000007bffffffffffffffffffffffffffffffffffffffffffffffffffffffff1916827bffffffffffffffffffffffffffffffffffffffffffffffffffffffff191614806103e957507f5b5e139f000000000000000000000000000000000000000000000000000000007bffffffffffffffffffffffffffffffffffffffffffffffffffffffff1916827bffffffffffffffffffffffffffffffffffffffffffffffffffffffff1916145b806103f957506103f882610ab8565b5b9050919050565b60606000805461040f90611b30565b80601f016020809104026020016040519081016040528092919081815260200182805461043b90611b30565b80156104885780601f1061045d57610100808354040283529160200191610488565b820191906000526020600020905b81548152906001019060200180831161046b57829003601f168201915b5050505050905090565b600061049d82610b22565b6104dc576040517f08c379a00000000000000000000000000000000000000000000000000000000081526004016104d390611bd3565b60405180910390fd5b6006600083815260200190815260200160002060009054906101000a900473ffffffffffffffffffffffffffffffffffffffff169050919050565b6000610522826106e3565b90508073ffffffffffffffffffffffffffffffffffffffff168373ffffffffffffffffffffffffffffffffffffffff1603610592576040517f08c379a000000000000000000000000000000000000000000000000000000000815260040161058990611c65565b60405180910390fd5b8073ffffffffffffffffffffffffffffffffffffffff166105b1610b8e565b73ffffffffffffffffffffffffffffffffffffffff1614806105e057506105df816105da610b8e565b610a24565b5b61061f576040517f08c379a000000000000000000000000000000000000000000000000000000000815260040161061690611cf7565b60405180910390fd5b6106298383610b96565b505050565b60006003547f000000000000000000000000000000000000000000000000000000000000000061065e9190611d46565b905090565b61067461066e610b8e565b82610c4f565b6106b3576040517f08c379a00000000000000000000000000000000000000000000000000000000081526004016106aa90611dec565b60405180910390fd5b6106be838383610d2d565b505050565b6106de838383604051806020016040528060008152506108f3565b505050565b6000806004600084815260200190815260200160002060009054906101000a900473ffffffffffffffffffffffffffffffffffffffff169050600073ffffffffffffffffffffffffffffffffffffffff168173ffffffffffffffffffffffffffffffffffffffff160361078b576040517f08c379a000000000000000000000000000000000000000000000000000000000815260040161078290611e7e565b60405180910390fd5b80915050919050565b60008073ffffffffffffffffffffffffffffffffffffffff168273ffffffffffffffffffffffffffffffffffffffff1603610804576040517f08c379a00000000000000000000000000000000000000000000000000000000081526004016107fb90611f10565b60405180910390fd5b600560008373ffffffffffffffffffffffffffffffffffffffff1673ffffffffffffffffffffffffffffffffffffffff168152602001908152602001600020549050919050565b60606001805461085a90611b30565b80601f016020809104026020016040519081016040528092919081815260200182805461088690611b30565b80156108d35780601f106108a8576101008083540402835291602001916108d3565b820191906000526020600020905b8154815290600101906020018083116108b657829003601f168201915b5050505050905090565b6108ef6108e8610b8e565b8383610f93565b5050565b6109046108fe610b8e565b83610c4f565b610943576040517f08c379a000000000000000000000000000000000000000000000000000000000815260040161093a90611dec565b60405180910390fd5b61094f848484846110ff565b50505050565b606061096082610b22565b61099f576040517f08c379a000000000000000000000000000000000000000000000000000000000815260040161099690611fa2565b60405180910390fd5b60006109a961115b565b905060008151116109c957604051806020016040528060008152506109f4565b806109d384611172565b6040516020016109e4929190611ffe565b6040516020818303038152906040525b915050919050565b60007f0000000000000000000000000000000000000000000000000000000000000000905090565b6000600760008473ffffffffffffffffffffffffffffffffffffffff1673ffffffffffffffffffffffffffffffffffffffff16815260200190815260200160002060008373ffffffffffffffffffffffffffffffffffffffff1673ffffffffffffffffffffffffffffffffffffffff16815260200190815260200160002060009054906101000a900460ff16905092915050565b60007f01ffc9a7000000000000000000000000000000000000000000000000000000007bffffffffffffffffffffffffffffffffffffffffffffffffffffffff1916827bffffffffffffffffffffffffffffffffffffffffffffffffffffffff1916149050919050565b60008073ffffffffffffffffffffffffffffffffffffffff166004600084815260200190815260200160002060009054906101000a900473ffffffffffffffffffffffffffffffffffffffff1673ffffffffffffffffffffffffffffffffffffffff1614159050919050565b600033905090565b816006600083815260200190815260200160002060006101000a81548173ffffffffffffffffffffffffffffffffffffffff021916908373ffffffffffffffffffffffffffffffffffffffff160217905550808273ffffffffffffffffffffffffffffffffffffffff16610c09836106e3565b73ffffffffffffffffffffffffffffffffffffffff167f8c5be1e5ebec7d5bd14f71427d1e84f3dd0314c0f7b2291e5b200ac8c7c3b92560405160405180910390a45050565b6000610c5a82610b22565b610c99576040517f08c379a0000000000000000000000000000000000000000000000000000000008152600401610c9090612094565b60405180910390fd5b6000610ca4836106e3565b90508073ffffffffffffffffffffffffffffffffffffffff168473ffffffffffffffffffffffffffffffffffffffff161480610d1357508373ffffffffffffffffffffffffffffffffffffffff16610cfb84610492565b73ffffffffffffffffffffffffffffffffffffffff16145b80610d245750610d238185610a24565b5b91505092915050565b8273ffffffffffffffffffffffffffffffffffffffff16610d4d826106e3565b73ffffffffffffffffffffffffffffffffffffffff1614610da3576040517f08c379a0000000000000000000000000000000000000000000000000000000008152600401610d9a90612126565b60405180910390fd5b600073ffffffffffffffffffffffffffffffffffffffff168273ffffffffffffffffffffffffffffffffffffffff1603610e12576040517f08c379a0000000000000000000000000000000000000000000000000000000008152600401610e09906121b8565b60405180910390fd5b610e1d838383611240565b610e28600082610b96565b6001600560008573ffffffffffffffffffffffffffffffffffffffff1673ffffffffffffffffffffffffffffffffffffffff1681526020019081526020016000206000828254610e789190611d46565b925050819055506001600560008473ffffffffffffffffffffffffffffffffffffffff1673ffffffffffffffffffffffffffffffffffffffff1681526020019081526020016000206000828254610ecf91906121d8565b92505081905550816004600083815260200190815260200160002060006101000a81548173ffffffffffffffffffffffffffffffffffffffff021916908373ffffffffffffffffffffffffffffffffffffffff160217905550808273ffffffffffffffffffffffffffffffffffffffff168473ffffffffffffffffffffffffffffffffffffffff167fddf252ad1be2c89b69c2b068fc378daa952ba7f163c4a11628f55a4df523b3ef60405160405180910390a4610f8e838383611245565b505050565b8173ffffffffffffffffffffffffffffffffffffffff168373ffffffffffffffffffffffffffffffffffffffff1603611001576040517f08c379a0000000000000000000000000000000000000000000000000000000008152600401610ff890612258565b60405180910390fd5b80600760008573ffffffffffffffffffffffffffffffffffffffff1673ffffffffffffffffffffffffffffffffffffffff16815260200190815260200160002060008473ffffffffffffffffffffffffffffffffffffffff1673ffffffffffffffffffffffffffffffffffffffff16815260200190815260200160002060006101000a81548160ff0219169083151502179055508173ffffffffffffffffffffffffffffffffffffffff168373ffffffffffffffffffffffffffffffffffffffff167f17307eab39ab6107e8899845ad3d59bd9653f200f220920489ca2b5937696c31836040516110f291906115fb565b60405180910390a3505050565b61110a848484610d2d565b6111168484848461124a565b611155576040517f08c379a000000000000000000000000000000000000000000000000000000000815260040161114c906122ea565b60405180910390fd5b50505050565b606060405180602001604052806000815250905090565b606060006001611181846113d1565b01905060008167ffffffffffffffff8111156111a05761119f611913565b5b6040519080825280601f01601f1916602001820160405280156111d25781602001600182028036833780820191505090505b509050600082602001820190505b600115611235578080600190039150507f3031323334353637383961626364656600000000000000000000000000000000600a86061a8153600a85816112295761122861230a565b5b049450600085036111e0575b819350505050919050565b505050565b505050565b600061126b8473ffffffffffffffffffffffffffffffffffffffff16611524565b156113c4578373ffffffffffffffffffffffffffffffffffffffff1663150b7a02611294610b8e565b8786866040518563ffffffff1660e01b81526004016112b6949392919061238e565b6020604051808303816000875af19250505080156112f257506040513d601f19601f820116820180604052508101906112ef91906123ef565b60015b611374573d8060008114611322576040519150601f19603f3d011682016040523d82523d6000602084013e611327565b606091505b50600081510361136c576040517f08c379a0000000000000000000000000000000000000000000000000000000008152600401611363906122ea565b60405180910390fd5b805181602001fd5b63150b7a0260e01b7bffffffffffffffffffffffffffffffffffffffffffffffffffffffff1916817bffffffffffffffffffffffffffffffffffffffffffffffffffffffff1916149150506113c9565b600190505b949350505050565b600080600090507a184f03e93ff9f4daa797ed6e38ed64bf6a1f010000000000000000831061142f577a184f03e93ff9f4daa797ed6e38ed64bf6a1f01000000000000000083816114255761142461230a565b5b0492506040810190505b6d04ee2d6d415b85acef8100000000831061146c576d04ee2d6d415b85acef810000000083816114625761146161230a565b5b0492506020810190505b662386f26fc10000831061149b57662386f26fc1000083816114915761149061230a565b5b0492506010810190505b6305f5e10083106114c4576305f5e10083816114ba576114b961230a565b5b0492506008810190505b61271083106114e95761271083816114df576114de61230a565b5b0492506004810190505b6064831061150c57606483816115025761150161230a565b5b0492506002810190505b600a831061151b576001810190505b80915050919050565b6000808273ffffffffffffffffffffffffffffffffffffffff163b119050919050565b6000604051905090565b600080fd5b600080fd5b60007fffffffff0000000000000000000000000000000000000000000000000000000082169050919050565b6115908161155b565b811461159b57600080fd5b50565b6000813590506115ad81611587565b92915050565b6000602082840312156115c9576115c8611551565b5b60006115d78482850161159e565b91505092915050565b60008115159050919050565b6115f5816115e0565b82525050565b600060208201905061161060008301846115ec565b92915050565b600081519050919050565b600082825260208201905092915050565b60005b83811015611650578082015181840152602081019050611635565b60008484015250505050565b6000601f19601f8301169050919050565b600061167882611616565b6116828185611621565b9350611692818560208601611632565b61169b8161165c565b840191505092915050565b600060208201905081810360008301526116c0818461166d565b905092915050565b6000819050919050565b6116db816116c8565b81146116e657600080fd5b50565b6000813590506116f8816116d2565b92915050565b60006020828403121561171457611713611551565b5b6000611722848285016116e9565b91505092915050565b600073ffffffffffffffffffffffffffffffffffffffff82169050919050565b60006117568261172b565b9050919050565b6117668161174b565b82525050565b6000602082019050611781600083018461175d565b92915050565b6117908161174b565b811461179b57600080fd5b50565b6000813590506117ad81611787565b92915050565b600080604083850312156117ca576117c9611551565b5b60006117d88582860161179e565b92505060206117e9858286016116e9565b9150509250929050565b6117fc816116c8565b82525050565b600060208201905061181760008301846117f3565b92915050565b60008060006060848603121561183657611835611551565b5b60006118448682870161179e565b93505060206118558682870161179e565b9250506040611866868287016116e9565b9150509250925092565b60006020828403121561188657611885611551565b5b60006118948482850161179e565b91505092915050565b6118a6816115e0565b81146118b157600080fd5b50565b6000813590506118c38161189d565b92915050565b600080604083850312156118e0576118df611551565b5b60006118ee8582860161179e565b92505060206118ff858286016118b4565b9150509250929050565b600080fd5b600080fd5b7f4e487b7100000000000000000000000000000000000000000000000000000000600052604160045260246000fd5b61194b8261165c565b810181811067ffffffffffffffff8211171561196a57611969611913565b5b80604052505050565b600061197d611547565b90506119898282611942565b919050565b600067ffffffffffffffff8211156119a9576119a8611913565b5b6119b28261165c565b9050602081019050919050565b82818337600083830152505050565b60006119e16119dc8461198e565b611973565b9050828152602081018484840111156119fd576119fc61190e565b5b611a088482856119bf565b509392505050565b600082601f830112611a2557611a24611909565b5b8135611a358482602086016119ce565b91505092915050565b60008060008060808587031215611a5857611a57611551565b5b6000611a668782880161179e565b9450506020611a778782880161179e565b9350506040611a88878288016116e9565b925050606085013567ffffffffffffffff811115611aa957611aa8611556565b5b611ab587828801611a10565b91505092959194509250565b60008060408385031215611ad857611ad7611551565b5b6000611ae68582860161179e565b9250506020611af78582860161179e565b9150509250929050565b7f4e487b7100000000000000000000000000000000000000000000000000000000600052602260045260246000fd5b60006002820490506001821680611b4857607f821691505b602082108103611b5b57611b5a611b01565b5b50919050565b7f4552433732313a20617070726f76656420717565727920666f72206e6f6e657860008201527f697374656e7420746f6b656e0000000000000000000000000000000000000000602082015250565b6000611bbd602c83611621565b9150611bc882611b61565b604082019050919050565b60006020820190508181036000830152611bec81611bb0565b9050919050565b7f4552433732313a20617070726f76616c20746f2063757272656e74206f776e6560008201527f7200000000000000000000000000000000000000000000000000000000000000602082015250565b6000611c4f602183611621565b9150611c5a82611bf3565b604082019050919050565b60006020820190508181036000830152611c7e81611c42565b9050919050565b7f4552433732313a20617070726f76652063616c6c6572206973206e6f74206f7760008201527f6e6572206e6f7220617070726f76656420666f7220616c6c0000000000000000602082015250565b6000611ce1603883611621565b9150611cec82611c85565b604082019050919050565b60006020820190508181036000830152611d1081611cd4565b9050919050565b7f4e487b7100000000000000000000000000000000000000000000000000000000600052601160045260246000fd5b6000611d51826116c8565b9150611d5c836116c8565b9250828203905081811115611d7457611d73611d17565b5b92915050565b7f4552433732313a207472616e736665722063616c6c6572206973206e6f74206f60008201527f776e6572206e6f7220617070726f766564000000000000000000000000000000602082015250565b6000611dd6603183611621565b9150611de182611d7a565b604082019050919050565b60006020820190508181036000830152611e0581611dc9565b9050919050565b7f4552433732313a206f776e657220717565727920666f72206e6f6e657869737460008201527f656e7420746f6b656e0000000000000000000000000000000000000000000000602082015250565b6000611e68602983611621565b9150611e7382611e0c565b604082019050919050565b60006020820190508181036000830152611e9781611e5b565b9050919050565b7f4552433732313a2062616c616e636520717565727920666f7220746865207a6560008201527f726f206164647265737300000000000000000000000000000000000000000000602082015250565b6000611efa602a83611621565b9150611f0582611e9e565b604082019050919050565b60006020820190508181036000830152611f2981611eed565b9050919050565b7f4552433732314d657461646174613a2055524920717565727920666f72206e6f60008201527f6e6578697374656e7420746f6b656e0000000000000000000000000000000000602082015250565b6000611f8c602f83611621565b9150611f9782611f30565b604082019050919050565b60006020820190508181036000830152611fbb81611f7f565b9050919050565b600081905092915050565b6000611fd882611616565b611fe28185611fc2565b9350611ff2818560208601611632565b80840191505092915050565b600061200a8285611fcd565b91506120168284611fcd565b91508190509392505050565b7f4552433732313a206f70657261746f7220717565727920666f72206e6f6e657860008201527f697374656e7420746f6b656e0000000000000000000000000000000000000000602082015250565b600061207e602c83611621565b915061208982612022565b604082019050919050565b600060208201905081810360008301526120ad81612071565b9050919050565b7f4552433732313a207472616e736665722066726f6d20696e636f72726563742060008201527f6f776e6572000000000000000000000000000000000000000000000000000000602082015250565b6000612110602583611621565b915061211b826120b4565b604082019050919050565b6000602082019050818103600083015261213f81612103565b9050919050565b7f4552433732313a207472616e7366657220746f20746865207a65726f2061646460008201527f7265737300000000000000000000000000000000000000000000000000000000602082015250565b60006121a2602483611621565b91506121ad82612146565b604082019050919050565b600060208201905081810360008301526121d181612195565b9050919050565b60006121e3826116c8565b91506121ee836116c8565b925082820190508082111561220657612205611d17565b5b92915050565b7f4552433732313a20617070726f766520746f2063616c6c657200000000000000600082015250565b6000612242601983611621565b915061224d8261220c565b602082019050919050565b6000602082019050818103600083015261227181612235565b9050919050565b7f4552433732313a207472616e7366657220746f206e6f6e20455243373231526560008201527f63656976657220696d706c656d656e7465720000000000000000000000000000602082015250565b60006122d4603283611621565b91506122df82612278565b604082019050919050565b60006020820190508181036000830152612303816122c7565b9050919050565b7f4e487b7100000000000000000000000000000000000000000000000000000000600052601260045260246000fd5b600081519050919050565b600082825260208201905092915050565b600061236082612339565b61236a8185612344565b935061237a818560208601611632565b6123838161165c565b840191505092915050565b60006080820190506123a3600083018761175d565b6123b0602083018661175d565b6123bd60408301856117f3565b81810360608301526123cf8184612355565b905095945050505050565b6000815190506123e981611587565b92915050565b60006020828403121561240557612404611551565b5b6000612413848285016123da565b9150509291505056fea264697066735822122068f660469a1aaeb87870f5a865c87db6d86b293d172799b47e5dc4e464a0ac1664736f6c63430008130033",
  "immutableReferences": {
    "1768": [
      {
        "length": 32,
        "start": 1589
      },
      {
        "length": 32,
        "start": 2560
      }
    ]
  },
  "source": "// SPDX-License-Identifier: MIT\n\npragma solidity ^0.8.0;\n\nimport \"@openzeppelin/contracts/token/ERC721/IERC721.sol\";\nimport \"@openzeppelin/contracts/token/ERC721/IERC721Receiver.sol\";\nimport \"@openzeppelin/contracts/token/ERC721/extensions/IERC721Metadata.sol\";\nimport \"@openzeppelin/contracts/utils/Address.sol\";\nimport \"@openzeppelin/contracts/utils/Context.sol\";\nimport \"@openzeppelin/contracts/utils/Strings.sol\";\nimport \"@openzeppelin/contracts/utils/introspection/ERC165.sol\";\n\n/**\n * @dev Implementation of https://eips.ethereum.org/EIPS/eip-721[ERC721] Non-Fungible Token Standard, including\n * the Metadata extension, but not including the Enumerable extension. This does random batch minting.\n */\ncontract ERC721r is Context, ERC165, IERC721, IERC721Metadata {\n    using Address for address;\n    using Strings for uint256;\n\n    // Token name\n    string private _name;\n\n    // Token symbol\n    string private _symbol;\n\n    mapping(uint => uint) private _availableTokens;\n    uint256 private _numAvailableTokens;\n    uint256 immutable _maxSupply;\n    // Mapping from token ID to owner address\n    mapping(uint256 => address) private _owners;\n\n    // Mapping owner address to token count\n    mapping(address => uint256) private _balances;\n\n    // Mapping from token ID to approved address\n    mapping(uint256 => address) private _tokenApprovals;\n\n    // Mapping from owner to operator approvals\n    mapping(address => mapping(address => bool)) private _operatorApprovals;\n\n    /**\n     * @dev Initializes the contract by setting a `name` and a `symbol` to the token collection.\n     */\n    constructor(string memory name_, string memory symbol_, uint maxSupply_) {\n        _name = name_;\n        _symbol = symbol_;\n        _maxSupply = maxSupply_;\n        _numAvailableTokens = maxSupply_;\n    }\n\n    /**\n     * @dev See {IERC165-supportsInterface}.\n     */\n    function supportsInterface(\n        bytes4 interfaceId\n    ) public view virtual override(ERC165, IERC165) returns (bool) {\n        return\n            interfaceId == type(IERC721).interfaceId ||\n            interfaceId == type(IERC721Metadata).interfaceId ||\n            super.supportsInterface(interfaceId);\n    }\n\n    function totalSupply() public view virtual returns (uint256) {\n        return _maxSupply - _numAvailableTokens;\n    }\n\n    function maxSupply() public view virtual returns (uint256) {\n        return _maxSupply;\n    }\n\n    /**\n     * @dev See {IERC721-balanceOf}.\n     */\n    function balanceOf(\n        address owner\n    ) public view virtual override returns (uint256) {\n        require(\n            owner != address(0),\n            \"ERC721: balance query for the zero address\"\n        );\n        return _balances[owner];\n    }\n\n    /**\n     * @dev See {IERC721-ownerOf}.\n     */\n    function ownerOf(\n        uint256 tokenId\n    ) public view virtual override returns (address) {\n        address owner = _owners[tokenId];\n        require(\n            owner != address(0),\n            \"ERC721: owner query for nonexistent token\"\n        );\n        return owner;\n    }\n\n    /**\n     * @dev See {IERC721Metadata-name}.\n     */\n    function name() public view virtual override returns (string memory) {\n        return _name;\n    }\n\n    /**\n     * @dev See {IERC721Metadata-symbol}.\n     */\n    function symbol() public view virtual override returns (string memory) {\n        return _symbol;\n    }\n\n    /**\n     * @dev See {IERC721Metadata-tokenURI}.\n     */\n    function tokenURI(\n        uint256 tokenId\n    ) public view virtual override returns (string memory) {\n        require(\n            _exists(tokenId),\n            \"ERC721Metadata: URI query for nonexistent token\"\n        );\n\n        string memory baseURI = _baseURI();\n        return\n            bytes(baseURI).length > 0\n                ? string(abi.encodePacked(baseURI, tokenId.toString()))\n                : \"\";\n    }\n\n    /**\n     * @dev Base URI for computing {tokenURI}. If set, the resulting URI for each\n     * token will be the concatenation of the `baseURI` and the `tokenId`. Empty\n     * by default, can be overridden in child contracts.\n     */\n    function _baseURI() internal view virtual returns (string memory) {\n        return \"\";\n    }\n\n    /**\n     * @dev See {IERC721-approve}.\n     */\n    function approve(address to, uint256 tokenId) public virtual override {\n        address owner = ERC721r.ownerOf(tokenId);\n        require(to != owner, \"ERC721: approval to current owner\");\n\n        require(\n            _msgSender() == owner || isApprovedForAll(owner, _msgSender()),\n            \"ERC721: approve caller is not owner nor approved for all\"\n        );\n\n        _approve(to, tokenId);\n    }\n\n    /**\n     * @dev See {IERC721-getApproved}.\n     */\n    function getApproved(\n        uint256 tokenId\n    ) public view virtual override returns (address) {\n        require(\n            _exists(tokenId),\n            \"ERC721: approved query for nonexistent token\"\n        );\n\n        return _tokenApprovals[tokenId];\n    }\n\n    /**\n     * @dev See {IERC721-setApprovalForAll}.\n     */\n    function setApprovalForAll(\n        address operator,\n        bool approved\n    ) public virtual override {\n        _setApprovalForAll(_msgSender(), operator, approved);\n    }\n\n    /**\n     * @dev See {IERC721-isApprovedForAll}.\n     */\n    function isApprovedForAll(\n        address owner,\n        address operator\n    ) public view virtual override returns (bool) {\n        return _operatorApprovals[owner][operator];\n    }\n\n    /**\n     * @dev See {IERC721-transferFrom}.\n     */\n    function transferFrom(\n        address from,\n        address to,\n        uint256 tokenId\n    ) public virtual override {\n        //solhint-disable-next-line max-line-length\n        require(\n            _isApprovedOrOwner(_msgSender(), tokenId),\n            \"ERC721: transfer caller is not owner nor approved\"\n        );\n\n        _transfer(from, to, tokenId);\n    }\n\n    /**\n     * @dev See {IERC721-safeTransferFrom}.\n     */\n    function safeTransferFrom(\n        address from,\n        address to,\n        uint256 tokenId\n    ) public virtual override {\n        safeTransferFrom(from, to, tokenId, \"\");\n    }\n\n    /**\n     * @dev See {IERC721-safeTransferFrom}.\n     */\n    function safeTransferFrom(\n        address from,\n        address to,\n        uint256 tokenId,\n        bytes memory _data\n    ) public virtual override {\n        require(\n            _isApprovedOrOwner(_msgSender(), tokenId),\n            \"ERC721: transfer caller is not owner nor approved\"\n        );\n        _safeTransfer(from, to, tokenId, _data);\n    }\n\n    /**\n     * @dev Safely transfers `tokenId` token from `from` to `to`, checking first that contract recipients\n     * are aware of the ERC721 protocol to prevent tokens from being forever locked.\n     *\n     * `_data` is additional data, it has no specified format and it is sent in call to `to`.\n     *\n     * This internal function is equivalent to {safeTransferFrom}, and can be used to e.g.\n     * implement alternative mechanisms to perform token transfer, such as signature-based.\n     *\n     * Requirements:\n     *\n     * - `from` cannot be the zero address.\n     * - `to` cannot be the zero address.\n     * - `tokenId` token must exist and be owned by `from`.\n     * - If `to` refers to a smart contract, it must implement {IERC721Receiver-onERC721Received}, which is called upon a safe transfer.\n     *\n     * Emits a {Transfer} event.\n     */\n    function _safeTransfer(\n        address from,\n        address to,\n        uint256 tokenId,\n        bytes memory _data\n    ) internal virtual {\n        _transfer(from, to, tokenId);\n        require(\n            _checkOnERC721Received(from, to, tokenId, _data),\n            \"ERC721: transfer to non ERC721Receiver implementer\"\n        );\n    }\n\n    /**\n     * @dev Returns whether `tokenId` exists.\n     *\n     * Tokens can be managed by their owner or approved accounts via {approve} or {setApprovalForAll}.\n     *\n     * Tokens start existing when they are minted (`_mint`),\n     * and stop existing when they are burned (`_burn`).\n     */\n    function _exists(uint256 tokenId) internal view virtual returns (bool) {\n        return _owners[tokenId] != address(0);\n    }\n\n    /**\n     * @dev Returns whether `spender` is allowed to manage `tokenId`.\n     *\n     * Requirements:\n     *\n     * - `tokenId` must exist.\n     */\n    function _isApprovedOrOwner(\n        address spender,\n        uint256 tokenId\n    ) internal view virtual returns (bool) {\n        require(\n            _exists(tokenId),\n            \"ERC721: operator query for nonexistent token\"\n        );\n        address owner = ERC721r.ownerOf(tokenId);\n        return (spender == owner ||\n            getApproved(tokenId) == spender ||\n            isApprovedForAll(owner, spender));\n    }\n\n    function _mintIdWithoutBalanceUpdate(address to, uint256 tokenId) private {\n        _beforeTokenTransfer(address(0), to, tokenId);\n\n        _owners[tokenId] = to;\n\n        emit Transfer(address(0), to, tokenId);\n\n        _afterTokenTransfer(address(0), to, tokenId);\n    }\n\n    function _mintRandom(address to, uint _numToMint) internal virtual {\n        require(_msgSender() == tx.origin, \"Contracts cannot mint\");\n        require(to != address(0), \"ERC721: mint to the zero address\");\n        require(_numToMint > 0, \"ERC721r: need to mint at least one token\");\n\n        // TODO: Probably don't need this as it will underflow and revert automatically in this case\n        require(\n            _numAvailableTokens >= _numToMint,\n            \"ERC721r: minting more tokens than available\"\n        );\n\n        uint updatedNumAvailableTokens = _numAvailableTokens;\n        for (uint256 i; i < _numToMint; ++i) {\n            // Do this ++ unchecked?\n            uint256 tokenId = getRandomAvailableTokenId(\n                to,\n                updatedNumAvailableTokens\n            );\n\n            _mintIdWithoutBalanceUpdate(to, tokenId);\n\n            --updatedNumAvailableTokens;\n            _balances[to] += 1;\n        }\n\n        _numAvailableTokens = updatedNumAvailableTokens;\n    }\n\n    function getRandomAvailableTokenId(\n        address to,\n        uint updatedNumAvailableTokens\n    ) internal returns (uint256) {\n        uint256 randomNum = uint256(\n            keccak256(\n                abi.encode(\n                    to,\n                    tx.gasprice,\n                    block.number,\n                    block.timestamp,\n                    block.prevrandao,\n                    blockhash(block.number - 1),\n                    address(this),\n                    updatedNumAvailableTokens\n                )\n            )\n        );\n        uint256 randomIndex = randomNum % updatedNumAvailableTokens;\n        return getAvailableTokenAtIndex(randomIndex, updatedNumAvailableTokens);\n    }\n\n    // Implements https://en.wikipedia.org/wiki/Fisher%E2%80%93Yates_shuffle. Code taken from CryptoPhunksV2\n    function getAvailableTokenAtIndex(\n        uint256 indexToUse,\n        uint updatedNumAvailableTokens\n    ) internal returns (uint256) {\n        uint256 valAtIndex = _availableTokens[indexToUse];\n        uint256 result;\n        if (valAtIndex == 0) {\n            // This means the index itself is still an available token\n            result = indexToUse;\n        } else {\n            // This means the index itself is not an available token, but the val at that index is.\n            result = valAtIndex;\n        }\n\n        uint256 lastIndex = updatedNumAvailableTokens - 1;\n        uint256 lastValInArray = _availableTokens[lastIndex];\n        if (indexToUse != lastIndex) {\n            // Replace the value at indexToUse, now that it's been used.\n            // Replace it with the data from the last index in the array, since we are going to decrease the array size afterwards.\n            if (lastValInArray == 0) {\n                // This means the index itself is still an available token\n                _availableTokens[indexToUse] = lastIndex;\n            } else {\n                // This means the index itself is not an available token, but the val at that index is.\n                _availableTokens[indexToUse] = lastValInArray;\n            }\n        }\n        if (lastValInArray != 0) {\n            // Gas refund courtsey of @dievardump\n            delete _availableTokens[lastIndex];\n        }\n\n        return result;\n    }\n\n    // Not as good as minting a specific tokenId, but will behave the same at the start\n    // allowing you to explicitly mint some tokens at launch.\n    function _mintAtIndex(address to, uint index) internal virtual {\n        require(_msgSender() == tx.origin, \"Contracts cannot mint\");\n        require(to != address(0), \"ERC721: mint to the zero address\");\n        require(\n            _numAvailableTokens >= 1,\n            \"ERC721r: minting more tokens than available\"\n        );\n\n        uint tokenId = getAvailableTokenAtIndex(index, _numAvailableTokens);\n        --_numAvailableTokens;\n\n        _mintIdWithoutBalanceUpdate(to, tokenId);\n\n        _balances[to] += 1;\n    }\n\n    /**\n     * @dev Transfers `tokenId` from `from` to `to`.\n     *  As opposed to {transferFrom}, this imposes no restrictions on msg.sender.\n     *\n     * Requirements:\n     *\n     * - `to` cannot be the zero address.\n     * - `tokenId` token must be owned by `from`.\n     *\n     * Emits a {Transfer} event.\n     */\n    function _transfer(\n        address from,\n        address to,\n        uint256 tokenId\n    ) internal virtual {\n        require(\n            ERC721r.ownerOf(tokenId) == from,\n            \"ERC721: transfer from incorrect owner\"\n        );\n        require(to != address(0), \"ERC721: transfer to the zero address\");\n\n        _beforeTokenTransfer(from, to, tokenId);\n\n        // Clear approvals from the previous owner\n        _approve(address(0), tokenId);\n\n        _balances[from] -= 1;\n        _balances[to] += 1;\n        _owners[tokenId] = to;\n\n        emit Transfer(from, to, tokenId);\n\n        _afterTokenTransfer(from, to, tokenId);\n    }\n\n    /**\n     * @dev Approve `to` to operate on `tokenId`\n     *\n     * Emits a {Approval} event.\n     */\n    function _approve(address to, uint256 tokenId) internal virtual {\n        _tokenApprovals[tokenId] = to;\n        emit Approval(ERC721r.ownerOf(tokenId), to, tokenId);\n    }\n\n    /**\n     * @dev Approve `operator` to operate on all of `owner` tokens\n     *\n     * Emits a {ApprovalForAll} event.\n     */\n    function _setApprovalForAll(\n        address owner,\n        address operator,\n        bool approved\n    ) internal virtual {\n        require(owner != operator, \"ERC721: approve to caller\");\n        _operatorApprovals[owner][operator] = approved;\n        emit ApprovalForAll(owner, operator, approved);\n    }\n\n    /**\n     * @dev Internal function to invoke {IERC721Receiver-onERC721Received} on a target address.\n     * The call is not executed if the target address is not a contract.\n     *\n     * @param from address representing the previous owner of the given token ID\n     * @param to target address that will receive the tokens\n     * @param tokenId uint256 ID of the token to be transferred\n     * @param _data bytes optional data to send along with the call\n     * @return bool whether the call correctly returned the expected magic value\n     */\n    function _checkOnERC721Received(\n        address from,\n        address to,\n        uint256 tokenId,\n        bytes memory _data\n    ) private returns (bool) {\n        if (to.isContract()) {\n            try\n                IERC721Receiver(to).onERC721Received(\n                    _msgSender(),\n                    from,\n                    tokenId,\n                    _data\n                )\n            returns (bytes4 retval) {\n                return retval == IERC721Receiver.onERC721Received.selector;\n            } catch (bytes memory reason) {\n                if (reason.length == 0) {\n                    revert(\n                        \"ERC721: transfer to non ERC721Receiver implementer\"\n                    );\n                } else {\n                    assembly {\n                        revert(add(32, reason), mload(reason))\n                    }\n                }\n            }\n        } else {\n            return true;\n        }\n    }\n\n    /**\n     * @dev Hook that is called before any token transfer. This includes minting\n     * and burning.\n     *\n     * Calling conditions:\n     *\n     * - When `from` and `to` are both non-zero, ``from``'s `tokenId` will be\n     * transferred to `to`.\n     * - When `from` is zero, `tokenId` will be minted for `to`.\n     * - When `to` is zero, ``from``'s `tokenId` will be burned.\n     * - `from` and `to` are never both zero.\n     *\n     * To learn more about hooks, head to xref:ROOT:extending-contracts.adoc#using-hooks[Using Hooks].\n     */\n    function _beforeTokenTransfer(\n        address from,\n        address to,\n        uint256 tokenId\n    ) internal virtual {}\n\n    /**\n     * @dev Hook that is called after any transfer of tokens. This includes\n     * minting and burning.\n     *\n     * Calling conditions:\n     *\n     * - when `from` and `to` are both non-zero.\n     * - `from` and `to` are never both zero.\n     *\n     * To learn more about hooks, head to xref:ROOT:extending-contracts.adoc#using-hooks[Using Hooks].\n     */\n    function _afterTokenTransfer(\n        address from,\n        address to,\n        uint256 tokenId\n    ) internal virtual {}\n}\n",
  "sourcePath": "/home/quest/src/reapersnft/contracts/contracts/ERC721R.sol",
  "compiler": {
    "name": "solc",
    "version": "0.8.19+commit.7dd6d404.Emscripten.clang"
  },
  "schemaVersion": "3.4.13",
  "updatedAt": "2023-05-03T03:51:36.017Z",
  "devdoc": {
    "details": "Implementation of https://eips.ethereum.org/EIPS/eip-721[ERC721] Non-Fungible Token Standard, including the Metadata extension, but not including the Enumerable extension. This does random batch minting.",
    "events": {
      "Approval(address,address,uint256)": {
        "details": "Emitted when `owner` enables `approved` to manage the `tokenId` token."
      },
      "ApprovalForAll(address,address,bool)": {
        "details": "Emitted when `owner` enables or disables (`approved`) `operator` to manage all of its assets."
      },
      "Transfer(address,address,uint256)": {
        "details": "Emitted when `tokenId` token is transferred from `from` to `to`."
      }
    },
    "kind": "dev",
    "methods": {
      "approve(address,uint256)": {
        "details": "See {IERC721-approve}."
      },
      "balanceOf(address)": {
        "details": "See {IERC721-balanceOf}."
      },
      "constructor": {
        "details": "Initializes the contract by setting a `name` and a `symbol` to the token collection."
      },
      "getApproved(uint256)": {
        "details": "See {IERC721-getApproved}."
      },
      "isApprovedForAll(address,address)": {
        "details": "See {IERC721-isApprovedForAll}."
      },
      "name()": {
        "details": "See {IERC721Metadata-name}."
      },
      "ownerOf(uint256)": {
        "details": "See {IERC721-ownerOf}."
      },
      "safeTransferFrom(address,address,uint256)": {
        "details": "See {IERC721-safeTransferFrom}."
      },
      "safeTransferFrom(address,address,uint256,bytes)": {
        "details": "See {IERC721-safeTransferFrom}."
      },
      "setApprovalForAll(address,bool)": {
        "details": "See {IERC721-setApprovalForAll}."
      },
      "supportsInterface(bytes4)": {
        "details": "See {IERC165-supportsInterface}."
      },
      "symbol()": {
        "details": "See {IERC721Metadata-symbol}."
      },
      "tokenURI(uint256)": {
        "details": "See {IERC721Metadata-tokenURI}."
      },
      "transferFrom(address,address,uint256)": {
        "details": "See {IERC721-transferFrom}."
      }
    },
    "version": 1
  },
  "userdoc": {
    "kind": "user",
    "methods": {},
    "version": 1
  }
}