{
  "contractName": "ReapersRevengeNFT",
  "abi": [
    {
      "inputs": [
        {
          "internalType": "string",
          "name": "_initBaseURI",
          "type": "string"
        }
      ],
      "stateMutability": "nonpayable",
      "type": "constructor"
    },
    {
      "anonymous": false,
      "inputs": [
        {
          "indexed": true,
          "internalType": "address",
          "name": "owner",
          "type": "address"
        },
        {
          "indexed": true,
          "internalType": "address",
          "name": "approved",
          "type": "address"
        },
        {
          "indexed": true,
          "internalType": "uint256",
          "name": "tokenId",
          "type": "uint256"
        }
      ],
      "name": "Approval",
      "type": "event"
    },
    {
      "anonymous": false,
      "inputs": [
        {
          "indexed": true,
          "internalType": "address",
          "name": "owner",
          "type": "address"
        },
        {
          "indexed": true,
          "internalType": "address",
          "name": "operator",
          "type": "address"
        },
        {
          "indexed": false,
          "internalType": "bool",
          "name": "approved",
          "type": "bool"
        }
      ],
      "name": "ApprovalForAll",
      "type": "event"
    },
    {
      "anonymous": false,
      "inputs": [
        {
          "indexed": true,
          "internalType": "address",
          "name": "previousOwner",
          "type": "address"
        },
        {
          "indexed": true,
          "internalType": "address",
          "name": "newOwner",
          "type": "address"
        }
      ],
      "name": "OwnershipTransferred",
      "type": "event"
    },
    {
      "anonymous": false,
      "inputs": [
        {
          "indexed": true,
          "internalType": "address",
          "name": "from",
          "type": "address"
        },
        {
          "indexed": true,
          "internalType": "address",
          "name": "to",
          "type": "address"
        },
        {
          "indexed": true,
          "internalType": "uint256",
          "name": "tokenId",
          "type": "uint256"
        }
      ],
      "name": "Transfer",
      "type": "event"
    },
    {
      "inputs": [
        {
          "internalType": "address",
          "name": "to",
          "type": "address"
        },
        {
          "internalType": "uint256",
          "name": "tokenId",
          "type": "uint256"
        }
      ],
      "name": "approve",
      "outputs": [],
      "stateMutability": "nonpayable",
      "type": "function"
    },
    {
      "inputs": [
        {
          "internalType": "address",
          "name": "owner",
          "type": "address"
        }
      ],
      "name": "balanceOf",
      "outputs": [
        {
          "internalType": "uint256",
          "name": "",
          "type": "uint256"
        }
      ],
      "stateMutability": "view",
      "type": "function"
    },
    {
      "inputs": [],
      "name": "baseExtension",
      "outputs": [
        {
          "internalType": "string",
          "name": "",
          "type": "string"
        }
      ],
      "stateMutability": "view",
      "type": "function"
    },
    {
      "inputs": [],
      "name": "cost",
      "outputs": [
        {
          "internalType": "uint256",
          "name": "",
          "type": "uint256"
        }
      ],
      "stateMutability": "view",
      "type": "function"
    },
    {
      "inputs": [
        {
          "internalType": "uint256",
          "name": "tokenId",
          "type": "uint256"
        }
      ],
      "name": "getApproved",
      "outputs": [
        {
          "internalType": "address",
          "name": "",
          "type": "address"
        }
      ],
      "stateMutability": "view",
      "type": "function"
    },
    {
      "inputs": [],
      "name": "guestCost",
      "outputs": [
        {
          "internalType": "uint256",
          "name": "",
          "type": "uint256"
        }
      ],
      "stateMutability": "view",
      "type": "function"
    },
    {
      "inputs": [
        {
          "internalType": "address",
          "name": "",
          "type": "address"
        }
      ],
      "name": "guestList",
      "outputs": [
        {
          "internalType": "uint8",
          "name": "",
          "type": "uint8"
        }
      ],
      "stateMutability": "view",
      "type": "function"
    },
    {
      "inputs": [],
      "name": "happyHour",
      "outputs": [
        {
          "internalType": "bool",
          "name": "",
          "type": "bool"
        }
      ],
      "stateMutability": "view",
      "type": "function"
    },
    {
      "inputs": [
        {
          "internalType": "address",
          "name": "",
          "type": "address"
        }
      ],
      "name": "holderList",
      "outputs": [
        {
          "internalType": "uint8",
          "name": "",
          "type": "uint8"
        }
      ],
      "stateMutability": "view",
      "type": "function"
    },
    {
      "inputs": [
        {
          "internalType": "address",
          "name": "owner",
          "type": "address"
        },
        {
          "internalType": "address",
          "name": "operator",
          "type": "address"
        }
      ],
      "name": "isApprovedForAll",
      "outputs": [
        {
          "internalType": "bool",
          "name": "",
          "type": "bool"
        }
      ],
      "stateMutability": "view",
      "type": "function"
    },
    {
      "inputs": [],
      "name": "maxGuestMints",
      "outputs": [
        {
          "internalType": "uint256",
          "name": "",
          "type": "uint256"
        }
      ],
      "stateMutability": "view",
      "type": "function"
    },
    {
      "inputs": [],
      "name": "maxHolderMints",
      "outputs": [
        {
          "internalType": "uint256",
          "name": "",
          "type": "uint256"
        }
      ],
      "stateMutability": "view",
      "type": "function"
    },
    {
      "inputs": [],
      "name": "maxPublicMints",
      "outputs": [
        {
          "internalType": "uint256",
          "name": "",
          "type": "uint256"
        }
      ],
      "stateMutability": "view",
      "type": "function"
    },
    {
      "inputs": [],
      "name": "maxSupply",
      "outputs": [
        {
          "internalType": "uint256",
          "name": "",
          "type": "uint256"
        }
      ],
      "stateMutability": "view",
      "type": "function"
    },
    {
      "inputs": [
        {
          "internalType": "address",
          "name": "",
          "type": "address"
        }
      ],
      "name": "mintList",
      "outputs": [
        {
          "internalType": "uint256",
          "name": "",
          "type": "uint256"
        }
      ],
      "stateMutability": "view",
      "type": "function"
    },
    {
      "inputs": [],
      "name": "name",
      "outputs": [
        {
          "internalType": "string",
          "name": "",
          "type": "string"
        }
      ],
      "stateMutability": "view",
      "type": "function"
    },
    {
      "inputs": [],
      "name": "owner",
      "outputs": [
        {
          "internalType": "address",
          "name": "",
          "type": "address"
        }
      ],
      "stateMutability": "view",
      "type": "function"
    },
    {
      "inputs": [
        {
          "internalType": "uint256",
          "name": "tokenId",
          "type": "uint256"
        }
      ],
      "name": "ownerOf",
      "outputs": [
        {
          "internalType": "address",
          "name": "",
          "type": "address"
        }
      ],
      "stateMutability": "view",
      "type": "function"
    },
    {
      "inputs": [],
      "name": "paused",
      "outputs": [
        {
          "internalType": "bool",
          "name": "",
          "type": "bool"
        }
      ],
      "stateMutability": "view",
      "type": "function"
    },
    {
      "inputs": [],
      "name": "renounceOwnership",
      "outputs": [],
      "stateMutability": "nonpayable",
      "type": "function"
    },
    {
      "inputs": [
        {
          "internalType": "address",
          "name": "from",
          "type": "address"
        },
        {
          "internalType": "address",
          "name": "to",
          "type": "address"
        },
        {
          "internalType": "uint256",
          "name": "tokenId",
          "type": "uint256"
        }
      ],
      "name": "safeTransferFrom",
      "outputs": [],
      "stateMutability": "nonpayable",
      "type": "function"
    },
    {
      "inputs": [
        {
          "internalType": "address",
          "name": "from",
          "type": "address"
        },
        {
          "internalType": "address",
          "name": "to",
          "type": "address"
        },
        {
          "internalType": "uint256",
          "name": "tokenId",
          "type": "uint256"
        },
        {
          "internalType": "bytes",
          "name": "_data",
          "type": "bytes"
        }
      ],
      "name": "safeTransferFrom",
      "outputs": [],
      "stateMutability": "nonpayable",
      "type": "function"
    },
    {
      "inputs": [
        {
          "internalType": "address",
          "name": "operator",
          "type": "address"
        },
        {
          "internalType": "bool",
          "name": "approved",
          "type": "bool"
        }
      ],
      "name": "setApprovalForAll",
      "outputs": [],
      "stateMutability": "nonpayable",
      "type": "function"
    },
    {
      "inputs": [
        {
          "internalType": "bytes4",
          "name": "interfaceId",
          "type": "bytes4"
        }
      ],
      "name": "supportsInterface",
      "outputs": [
        {
          "internalType": "bool",
          "name": "",
          "type": "bool"
        }
      ],
      "stateMutability": "view",
      "type": "function"
    },
    {
      "inputs": [],
      "name": "symbol",
      "outputs": [
        {
          "internalType": "string",
          "name": "",
          "type": "string"
        }
      ],
      "stateMutability": "view",
      "type": "function"
    },
    {
      "inputs": [
        {
          "internalType": "uint256",
          "name": "index",
          "type": "uint256"
        }
      ],
      "name": "tokenByIndex",
      "outputs": [
        {
          "internalType": "uint256",
          "name": "",
          "type": "uint256"
        }
      ],
      "stateMutability": "view",
      "type": "function"
    },
    {
      "inputs": [
        {
          "internalType": "address",
          "name": "owner",
          "type": "address"
        },
        {
          "internalType": "uint256",
          "name": "index",
          "type": "uint256"
        }
      ],
      "name": "tokenOfOwnerByIndex",
      "outputs": [
        {
          "internalType": "uint256",
          "name": "",
          "type": "uint256"
        }
      ],
      "stateMutability": "view",
      "type": "function"
    },
    {
      "inputs": [],
      "name": "totalSupply",
      "outputs": [
        {
          "internalType": "uint256",
          "name": "",
          "type": "uint256"
        }
      ],
      "stateMutability": "view",
      "type": "function"
    },
    {
      "inputs": [
        {
          "internalType": "address",
          "name": "from",
          "type": "address"
        },
        {
          "internalType": "address",
          "name": "to",
          "type": "address"
        },
        {
          "internalType": "uint256",
          "name": "tokenId",
          "type": "uint256"
        }
      ],
      "name": "transferFrom",
      "outputs": [],
      "stateMutability": "nonpayable",
      "type": "function"
    },
    {
      "inputs": [
        {
          "internalType": "address",
          "name": "newOwner",
          "type": "address"
        }
      ],
      "name": "transferOwnership",
      "outputs": [],
      "stateMutability": "nonpayable",
      "type": "function"
    },
    {
      "inputs": [
        {
          "internalType": "uint256",
          "name": "_mintAmount",
          "type": "uint256"
        }
      ],
      "name": "mint",
      "outputs": [],
      "stateMutability": "payable",
      "type": "function"
    },
    {
      "inputs": [
        {
          "internalType": "address",
          "name": "addr",
          "type": "address"
        }
      ],
      "name": "mintsRemaining",
      "outputs": [
        {
          "internalType": "uint256",
          "name": "",
          "type": "uint256"
        }
      ],
      "stateMutability": "view",
      "type": "function"
    },
    {
      "inputs": [
        {
          "internalType": "uint256",
          "name": "tokenId",
          "type": "uint256"
        }
      ],
      "name": "tokenURI",
      "outputs": [
        {
          "internalType": "string",
          "name": "",
          "type": "string"
        }
      ],
      "stateMutability": "view",
      "type": "function"
    },
    {
      "inputs": [
        {
          "internalType": "address",
          "name": "_owner",
          "type": "address"
        }
      ],
      "name": "walletOfOwner",
      "outputs": [
        {
          "internalType": "uint256[]",
          "name": "",
          "type": "uint256[]"
        }
      ],
      "stateMutability": "view",
      "type": "function"
    },
    {
      "inputs": [
        {
          "internalType": "address[]",
          "name": "addresses",
          "type": "address[]"
        }
      ],
      "name": "seedHolderList",
      "outputs": [],
      "stateMutability": "nonpayable",
      "type": "function"
    },
    {
      "inputs": [
        {
          "internalType": "address[]",
          "name": "addresses",
          "type": "address[]"
        }
      ],
      "name": "removeHolderList",
      "outputs": [],
      "stateMutability": "nonpayable",
      "type": "function"
    },
    {
      "inputs": [
        {
          "internalType": "address[]",
          "name": "addresses",
          "type": "address[]"
        }
      ],
      "name": "seedGuestList",
      "outputs": [],
      "stateMutability": "nonpayable",
      "type": "function"
    },
    {
      "inputs": [
        {
          "internalType": "address[]",
          "name": "addresses",
          "type": "address[]"
        }
      ],
      "name": "removeGuestList",
      "outputs": [],
      "stateMutability": "nonpayable",
      "type": "function"
    },
    {
      "inputs": [
        {
          "internalType": "uint256",
          "name": "_newCost",
          "type": "uint256"
        }
      ],
      "name": "setCost",
      "outputs": [],
      "stateMutability": "nonpayable",
      "type": "function"
    },
    {
      "inputs": [
        {
          "internalType": "uint256",
          "name": "_newGuestCost",
          "type": "uint256"
        }
      ],
      "name": "setGuestCost",
      "outputs": [],
      "stateMutability": "nonpayable",
      "type": "function"
    },
    {
      "inputs": [
        {
          "internalType": "uint256",
          "name": "_newMaxGuestMintAmount",
          "type": "uint256"
        }
      ],
      "name": "setMaxGuestMintAmount",
      "outputs": [],
      "stateMutability": "nonpayable",
      "type": "function"
    },
    {
      "inputs": [
        {
          "internalType": "uint256",
          "name": "_newMaxPublicMintAmount",
          "type": "uint256"
        }
      ],
      "name": "setMaxPublicMintAmount",
      "outputs": [],
      "stateMutability": "nonpayable",
      "type": "function"
    },
    {
      "inputs": [
        {
          "internalType": "string",
          "name": "_newBaseURI",
          "type": "string"
        }
      ],
      "name": "setBaseURI",
      "outputs": [],
      "stateMutability": "nonpayable",
      "type": "function"
    },
    {
      "inputs": [
        {
          "internalType": "string",
          "name": "_newBaseExtension",
          "type": "string"
        }
      ],
      "name": "setBaseExtension",
      "outputs": [],
      "stateMutability": "nonpayable",
      "type": "function"
    },
    {
      "inputs": [
        {
          "internalType": "bool",
          "name": "_state",
          "type": "bool"
        }
      ],
      "name": "pause",
      "outputs": [],
      "stateMutability": "nonpayable",
      "type": "function"
    },
    {
      "inputs": [
        {
          "internalType": "bool",
          "name": "_state",
          "type": "bool"
        }
      ],
      "name": "setHappyHour",
      "outputs": [],
      "stateMutability": "nonpayable",
      "type": "function"
    },
    {
      "inputs": [],
      "name": "withdraw",
      "outputs": [],
      "stateMutability": "payable",
      "type": "function"
    }
  ],
  "bytecode": "0x60a06040526040518060400160405280600581526020017f2e6a736f6e000000000000000000000000000000000000000000000000000000815250600e90816200004a9190620005de565b506001600f60006101000a81548160ff0219169083151502179055506001600f60016101000a81548160ff02191690831515021790555060fa601055600a601155600560125566470de4df820000601355662386f26fc10000601455348015620000b357600080fd5b5060405162005c0238038062005c028339818101604052810190620000d9919062000829565b6040518060400160405280600f81526020017f5265617065727320526576656e676500000000000000000000000000000000008152506040518060400160405280600381526020017f5250520000000000000000000000000000000000000000000000000000000000815250611a048260009081620001599190620005de565b5081600190816200016b9190620005de565b508060808181525050806003819055505050506200019e62000192620001b660201b60201c565b620001be60201b60201c565b620001af816200028460201b60201c565b50620008fd565b600033905090565b6000600c60009054906101000a900473ffffffffffffffffffffffffffffffffffffffff16905081600c60006101000a81548173ffffffffffffffffffffffffffffffffffffffff021916908373ffffffffffffffffffffffffffffffffffffffff1602179055508173ffffffffffffffffffffffffffffffffffffffff168173ffffffffffffffffffffffffffffffffffffffff167f8be0079c531659141344cd1fd0a4f28419497f9722a3daafe3b4186f6b6457e060405160405180910390a35050565b62000294620002a960201b60201c565b80600d9081620002a59190620005de565b5050565b620002b9620001b660201b60201c565b73ffffffffffffffffffffffffffffffffffffffff16620002df6200033a60201b60201c565b73ffffffffffffffffffffffffffffffffffffffff161462000338576040517f08c379a00000000000000000000000000000000000000000000000000000000081526004016200032f90620008db565b60405180910390fd5b565b6000600c60009054906101000a900473ffffffffffffffffffffffffffffffffffffffff16905090565b600081519050919050565b7f4e487b7100000000000000000000000000000000000000000000000000000000600052604160045260246000fd5b7f4e487b7100000000000000000000000000000000000000000000000000000000600052602260045260246000fd5b60006002820490506001821680620003e657607f821691505b602082108103620003fc57620003fb6200039e565b5b50919050565b60008190508160005260206000209050919050565b60006020601f8301049050919050565b600082821b905092915050565b600060088302620004667fffffffffffffffffffffffffffffffffffffffffffffffffffffffffffffffff8262000427565b62000472868362000427565b95508019841693508086168417925050509392505050565b6000819050919050565b6000819050919050565b6000620004bf620004b9620004b3846200048a565b62000494565b6200048a565b9050919050565b6000819050919050565b620004db836200049e565b620004f3620004ea82620004c6565b84845462000434565b825550505050565b600090565b6200050a620004fb565b62000517818484620004d0565b505050565b5b818110156200053f576200053360008262000500565b6001810190506200051d565b5050565b601f8211156200058e57620005588162000402565b620005638462000417565b8101602085101562000573578190505b6200058b620005828562000417565b8301826200051c565b50505b505050565b600082821c905092915050565b6000620005b36000198460080262000593565b1980831691505092915050565b6000620005ce8383620005a0565b9150826002028217905092915050565b620005e98262000364565b67ffffffffffffffff8111156200060557620006046200036f565b5b620006118254620003cd565b6200061e82828562000543565b600060209050601f83116001811462000656576000841562000641578287015190505b6200064d8582620005c0565b865550620006bd565b601f198416620006668662000402565b60005b82811015620006905784890151825560018201915060208501945060208101905062000669565b86831015620006b05784890151620006ac601f891682620005a0565b8355505b6001600288020188555050505b505050505050565b6000604051905090565b600080fd5b600080fd5b600080fd5b600080fd5b6000601f19601f8301169050919050565b620006ff82620006e3565b810181811067ffffffffffffffff821117156200072157620007206200036f565b5b80604052505050565b600062000736620006c5565b9050620007448282620006f4565b919050565b600067ffffffffffffffff8211156200076757620007666200036f565b5b6200077282620006e3565b9050602081019050919050565b60005b838110156200079f57808201518184015260208101905062000782565b60008484015250505050565b6000620007c2620007bc8462000749565b6200072a565b905082815260208101848484011115620007e157620007e0620006de565b5b620007ee8482856200077f565b509392505050565b600082601f8301126200080e576200080d620006d9565b5b815162000820848260208601620007ab565b91505092915050565b600060208284031215620008425762000841620006cf565b5b600082015167ffffffffffffffff811115620008635762000862620006d4565b5b6200087184828501620007f6565b91505092915050565b600082825260208201905092915050565b7f4f776e61626c653a2063616c6c6572206973206e6f7420746865206f776e6572600082015250565b6000620008c36020836200087a565b9150620008d0826200088b565b602082019050919050565b60006020820190508181036000830152620008f681620008b4565b9050919050565b6080516152e9620009196000396000611da401526152e96000f3fe6080604052600436106102885760003560e01c80635a3e0bbc1161015a578063a22cb465116100c1578063c87b56dd1161007a578063c87b56dd146109d4578063d5abeb0114610a11578063da3ef23f14610a3c578063e985e9c514610a65578063f2fde38b14610aa2578063fae1264d14610acb57610288565b8063a22cb465146108c6578063a6cc3a82146108ef578063b88d4fde14610918578063bef432c614610941578063c66828621461097e578063c7b0dcbc146109a957610288565b8063715018a611610113578063715018a6146107e957806379fcb984146108005780638da5cb5b14610829578063930c75d11461085457806395d89b411461087f578063a0712d68146108aa57610288565b80635a3e0bbc146106c75780635c975abb146106f05780636184b3e21461071b5780636207597a146107445780636352211e1461076f57806370a08231146107ac57610288565b80631b73cb63116101fe578063438b6300116101b7578063438b63001461059557806344a0d68a146105d257806349be069c146105fb57806349e79bcb146106245780634f6ccce71461066157806355f804b31461069e57610288565b80631b73cb631461049657806323b872dd146104bf5780632f745c59146104e85780633ccfd60b14610525578063423eac3b1461052f57806342842e0e1461056c57610288565b806307e3e6d51161025057806307e3e6d514610384578063081812fc146103af578063095ea7b3146103ec5780630961c5ea1461041557806313faede61461044057806318160ddd1461046b57610288565b806301ffc9a71461028d57806302329a29146102ca578063038ff0db146102f357806305a955af1461031c57806306fdde0314610359575b600080fd5b34801561029957600080fd5b506102b460048036038101906102af9190613576565b610af4565b6040516102c191906135be565b60405180910390f35b3480156102d657600080fd5b506102f160048036038101906102ec9190613605565b610b6e565b005b3480156102ff57600080fd5b5061031a60048036038101906103159190613697565b610b93565b005b34801561032857600080fd5b50610343600480360381019061033e9190613742565b610c41565b604051610350919061378b565b60405180910390f35b34801561036557600080fd5b5061036e610c61565b60405161037b9190613836565b60405180910390f35b34801561039057600080fd5b50610399610cf3565b6040516103a691906135be565b60405180910390f35b3480156103bb57600080fd5b506103d660048036038101906103d1919061388e565b610d06565b6040516103e391906138ca565b60405180910390f35b3480156103f857600080fd5b50610413600480360381019061040e91906138e5565b610d8b565b005b34801561042157600080fd5b5061042a610ea2565b6040516104379190613934565b60405180910390f35b34801561044c57600080fd5b50610455610ea8565b6040516104629190613934565b60405180910390f35b34801561047757600080fd5b50610480610eae565b60405161048d9190613934565b60405180910390f35b3480156104a257600080fd5b506104bd60048036038101906104b89190613697565b610ebb565b005b3480156104cb57600080fd5b506104e660048036038101906104e1919061394f565b610f69565b005b3480156104f457600080fd5b5061050f600480360381019061050a91906138e5565b610fc9565b60405161051c9190613934565b60405180910390f35b61052d61106e565b005b34801561053b57600080fd5b5061055660048036038101906105519190613742565b6110f6565b6040516105639190613934565b60405180910390f35b34801561057857600080fd5b50610593600480360381019061058e919061394f565b6112e8565b005b3480156105a157600080fd5b506105bc60048036038101906105b79190613742565b611308565b6040516105c99190613a60565b60405180910390f35b3480156105de57600080fd5b506105f960048036038101906105f4919061388e565b6113b6565b005b34801561060757600080fd5b50610622600480360381019061061d9190613697565b6113c8565b005b34801561063057600080fd5b5061064b60048036038101906106469190613742565b611476565b604051610658919061378b565b60405180910390f35b34801561066d57600080fd5b506106886004803603810190610683919061388e565b611496565b6040516106959190613934565b60405180910390f35b3480156106aa57600080fd5b506106c560048036038101906106c09190613bb2565b611507565b005b3480156106d357600080fd5b506106ee60048036038101906106e9919061388e565b611522565b005b3480156106fc57600080fd5b50610705611534565b60405161071291906135be565b60405180910390f35b34801561072757600080fd5b50610742600480360381019061073d919061388e565b611547565b005b34801561075057600080fd5b50610759611559565b6040516107669190613934565b60405180910390f35b34801561077b57600080fd5b506107966004803603810190610791919061388e565b61155f565b6040516107a391906138ca565b60405180910390f35b3480156107b857600080fd5b506107d360048036038101906107ce9190613742565b611610565b6040516107e09190613934565b60405180910390f35b3480156107f557600080fd5b506107fe6116c7565b005b34801561080c57600080fd5b506108276004803603810190610822919061388e565b6116db565b005b34801561083557600080fd5b5061083e6116ed565b60405161084b91906138ca565b60405180910390f35b34801561086057600080fd5b50610869611717565b6040516108769190613934565b60405180910390f35b34801561088b57600080fd5b5061089461171d565b6040516108a19190613836565b60405180910390f35b6108c460048036038101906108bf919061388e565b6117af565b005b3480156108d257600080fd5b506108ed60048036038101906108e89190613bfb565b611bad565b005b3480156108fb57600080fd5b5061091660048036038101906109119190613605565b611bc3565b005b34801561092457600080fd5b5061093f600480360381019061093a9190613cdc565b611be8565b005b34801561094d57600080fd5b5061096860048036038101906109639190613742565b611c4a565b6040516109759190613934565b60405180910390f35b34801561098a57600080fd5b50610993611c62565b6040516109a09190613836565b60405180910390f35b3480156109b557600080fd5b506109be611cf0565b6040516109cb9190613934565b60405180910390f35b3480156109e057600080fd5b506109fb60048036038101906109f6919061388e565b611cf6565b604051610a089190613836565b60405180910390f35b348015610a1d57600080fd5b50610a26611da0565b604051610a339190613934565b60405180910390f35b348015610a4857600080fd5b50610a636004803603810190610a5e9190613bb2565b611dc8565b005b348015610a7157600080fd5b50610a8c6004803603810190610a879190613d5f565b611de3565b604051610a9991906135be565b60405180910390f35b348015610aae57600080fd5b50610ac96004803603810190610ac49190613742565b611e77565b005b348015610ad757600080fd5b50610af26004803603810190610aed9190613697565b611efa565b005b60007f780e9d63000000000000000000000000000000000000000000000000000000007bffffffffffffffffffffffffffffffffffffffffffffffffffffffff1916827bffffffffffffffffffffffffffffffffffffffffffffffffffffffff19161480610b675750610b6682611fa8565b5b9050919050565b610b7661208a565b80600f60006101000a81548160ff02191690831515021790555050565b610b9b61208a565b60005b82829050811015610c3c57600160156000858585818110610bc257610bc1613d9f565b5b9050602002016020810190610bd79190613742565b73ffffffffffffffffffffffffffffffffffffffff1673ffffffffffffffffffffffffffffffffffffffff16815260200190815260200160002060006101000a81548160ff021916908360ff1602179055508080610c3490613dfd565b915050610b9e565b505050565b60156020528060005260406000206000915054906101000a900460ff1681565b606060008054610c7090613e74565b80601f0160208091040260200160405190810160405280929190818152602001828054610c9c90613e74565b8015610ce95780601f10610cbe57610100808354040283529160200191610ce9565b820191906000526020600020905b815481529060010190602001808311610ccc57829003601f168201915b5050505050905090565b600f60019054906101000a900460ff1681565b6000610d1182612108565b610d50576040517f08c379a0000000000000000000000000000000000000000000000000000000008152600401610d4790613f17565b60405180910390fd5b6006600083815260200190815260200160002060009054906101000a900473ffffffffffffffffffffffffffffffffffffffff169050919050565b6000610d968261155f565b90508073ffffffffffffffffffffffffffffffffffffffff168373ffffffffffffffffffffffffffffffffffffffff1603610e06576040517f08c379a0000000000000000000000000000000000000000000000000000000008152600401610dfd90613fa9565b60405180910390fd5b8073ffffffffffffffffffffffffffffffffffffffff16610e25612174565b73ffffffffffffffffffffffffffffffffffffffff161480610e545750610e5381610e4e612174565b611de3565b5b610e93576040517f08c379a0000000000000000000000000000000000000000000000000000000008152600401610e8a9061403b565b60405180910390fd5b610e9d838361217c565b505050565b60105481565b60135481565b6000600a80549050905090565b610ec361208a565b60005b82829050811015610f6457600160166000858585818110610eea57610ee9613d9f565b5b9050602002016020810190610eff9190613742565b73ffffffffffffffffffffffffffffffffffffffff1673ffffffffffffffffffffffffffffffffffffffff16815260200190815260200160002060006101000a81548160ff021916908360ff1602179055508080610f5c90613dfd565b915050610ec6565b505050565b610f7a610f74612174565b82612235565b610fb9576040517f08c379a0000000000000000000000000000000000000000000000000000000008152600401610fb0906140cd565b60405180910390fd5b610fc4838383612313565b505050565b6000610fd483611610565b8210611015576040517f08c379a000000000000000000000000000000000000000000000000000000000815260040161100c9061415f565b60405180910390fd5b600860008473ffffffffffffffffffffffffffffffffffffffff1673ffffffffffffffffffffffffffffffffffffffff168152602001908152602001600020600083815260200190815260200160002054905092915050565b61107661208a565b60006110806116ed565b73ffffffffffffffffffffffffffffffffffffffff16476040516110a3906141b0565b60006040518083038185875af1925050503d80600081146110e0576040519150601f19603f3d011682016040523d82523d6000602084013e6110e5565b606091505b50509050806110f357600080fd5b50565b6000806001601660008573ffffffffffffffffffffffffffffffffffffffff1673ffffffffffffffffffffffffffffffffffffffff16815260200190815260200160002060009054906101000a900460ff1660ff1614905060006001601560008673ffffffffffffffffffffffffffffffffffffffff1673ffffffffffffffffffffffffffffffffffffffff16815260200190815260200160002060009054906101000a900460ff1660ff161490506111ad6116ed565b73ffffffffffffffffffffffffffffffffffffffff168473ffffffffffffffffffffffffffffffffffffffff16036111eb57601054925050506112e3565b600f60019054906101000a900460ff168015611205575081155b801561120f575080155b1561121f576000925050506112e3565b60008261122e57601254611232565b6011545b905081156112405760105490505b80601760008773ffffffffffffffffffffffffffffffffffffffff1673ffffffffffffffffffffffffffffffffffffffff168152602001908152602001600020541061129257600093505050506112e3565b601760008673ffffffffffffffffffffffffffffffffffffffff1673ffffffffffffffffffffffffffffffffffffffff16815260200190815260200160002054816112dd91906141c5565b93505050505b919050565b61130383838360405180602001604052806000815250611be8565b505050565b6060600061131583611610565b905060008167ffffffffffffffff81111561133357611332613a87565b5b6040519080825280602002602001820160405280156113615781602001602082028036833780820191505090505b50905060005b828110156113ab576113798582610fc9565b82828151811061138c5761138b613d9f565b5b60200260200101818152505080806113a390613dfd565b915050611367565b508092505050919050565b6113be61208a565b8060138190555050565b6113d061208a565b60005b82829050811015611471576000601660008585858181106113f7576113f6613d9f565b5b905060200201602081019061140c9190613742565b73ffffffffffffffffffffffffffffffffffffffff1673ffffffffffffffffffffffffffffffffffffffff16815260200190815260200160002060006101000a81548160ff021916908360ff160217905550808061146990613dfd565b9150506113d3565b505050565b60166020528060005260406000206000915054906101000a900460ff1681565b60006114a0610eae565b82106114e1576040517f08c379a00000000000000000000000000000000000000000000000000000000081526004016114d89061426b565b60405180910390fd5b600a82815481106114f5576114f4613d9f565b5b90600052602060002001549050919050565b61150f61208a565b80600d908161151e9190614437565b5050565b61152a61208a565b8060148190555050565b600f60009054906101000a900460ff1681565b61154f61208a565b8060118190555050565b60145481565b6000806004600084815260200190815260200160002060009054906101000a900473ffffffffffffffffffffffffffffffffffffffff169050600073ffffffffffffffffffffffffffffffffffffffff168173ffffffffffffffffffffffffffffffffffffffff1603611607576040517f08c379a00000000000000000000000000000000000000000000000000000000081526004016115fe9061457b565b60405180910390fd5b80915050919050565b60008073ffffffffffffffffffffffffffffffffffffffff168273ffffffffffffffffffffffffffffffffffffffff1603611680576040517f08c379a00000000000000000000000000000000000000000000000000000000081526004016116779061460d565b60405180910390fd5b600560008373ffffffffffffffffffffffffffffffffffffffff1673ffffffffffffffffffffffffffffffffffffffff168152602001908152602001600020549050919050565b6116cf61208a565b6116d96000612579565b565b6116e361208a565b8060128190555050565b6000600c60009054906101000a900473ffffffffffffffffffffffffffffffffffffffff16905090565b60115481565b60606001805461172c90613e74565b80601f016020809104026020016040519081016040528092919081815260200182805461175890613e74565b80156117a55780601f1061177a576101008083540402835291602001916117a5565b820191906000526020600020905b81548152906001019060200180831161178857829003601f168201915b5050505050905090565b600f60009054906101000a900460ff16156117ff576040517f08c379a00000000000000000000000000000000000000000000000000000000081526004016117f690614679565b60405180910390fd5b60008111611842576040517f08c379a0000000000000000000000000000000000000000000000000000000008152600401611839906146e5565b60405180910390fd5b61184a611da0565b81611853610eae565b61185d9190614705565b111561189e576040517f08c379a000000000000000000000000000000000000000000000000000000000815260040161189590614785565b60405180910390fd5b6118a66116ed565b73ffffffffffffffffffffffffffffffffffffffff163373ffffffffffffffffffffffffffffffffffffffff1614611b4a5760006001601660003373ffffffffffffffffffffffffffffffffffffffff1673ffffffffffffffffffffffffffffffffffffffff16815260200190815260200160002060009054906101000a900460ff1660ff1614905060006001601560003373ffffffffffffffffffffffffffffffffffffffff1673ffffffffffffffffffffffffffffffffffffffff16815260200190815260200160002060009054906101000a900460ff1660ff16149050600f60019054906101000a900460ff16156119e45781806119a45750805b6119e3576040517f08c379a00000000000000000000000000000000000000000000000000000000081526004016119da90614817565b60405180910390fd5b5b81806119ed5750805b15611a475782601454611a009190614837565b341015611a42576040517f08c379a0000000000000000000000000000000000000000000000000000000008152600401611a39906148c5565b60405180910390fd5b611a98565b82601354611a559190614837565b341015611a97576040517f08c379a0000000000000000000000000000000000000000000000000000000008152600401611a8e906148c5565b60405180910390fd5b5b600082611aa757601254611aab565b6011545b90508115611ab95760105490505b8084601760003373ffffffffffffffffffffffffffffffffffffffff1673ffffffffffffffffffffffffffffffffffffffff16815260200190815260200160002054611b059190614705565b1115611b46576040517f08c379a0000000000000000000000000000000000000000000000000000000008152600401611b3d90614931565b60405180910390fd5b5050505b80601760003373ffffffffffffffffffffffffffffffffffffffff1673ffffffffffffffffffffffffffffffffffffffff1681526020019081526020016000206000828254611b999190614705565b92505081905550611baa338261263f565b50565b611bbf611bb8612174565b8383612857565b5050565b611bcb61208a565b80600f60016101000a81548160ff02191690831515021790555050565b611bf9611bf3612174565b83612235565b611c38576040517f08c379a0000000000000000000000000000000000000000000000000000000008152600401611c2f906140cd565b60405180910390fd5b611c44848484846129c3565b50505050565b60176020528060005260406000206000915090505481565b600e8054611c6f90613e74565b80601f0160208091040260200160405190810160405280929190818152602001828054611c9b90613e74565b8015611ce85780601f10611cbd57610100808354040283529160200191611ce8565b820191906000526020600020905b815481529060010190602001808311611ccb57829003601f168201915b505050505081565b60125481565b6060611d0182612108565b611d40576040517f08c379a0000000000000000000000000000000000000000000000000000000008152600401611d37906149c3565b60405180910390fd5b6000611d4a612a1f565b90506000815111611d6a5760405180602001604052806000815250611d98565b80611d7484612ab1565b600e604051602001611d8893929190614aa2565b6040516020818303038152906040525b915050919050565b60007f0000000000000000000000000000000000000000000000000000000000000000905090565b611dd061208a565b80600e9081611ddf9190614437565b5050565b6000600760008473ffffffffffffffffffffffffffffffffffffffff1673ffffffffffffffffffffffffffffffffffffffff16815260200190815260200160002060008373ffffffffffffffffffffffffffffffffffffffff1673ffffffffffffffffffffffffffffffffffffffff16815260200190815260200160002060009054906101000a900460ff16905092915050565b611e7f61208a565b600073ffffffffffffffffffffffffffffffffffffffff168173ffffffffffffffffffffffffffffffffffffffff1603611eee576040517f08c379a0000000000000000000000000000000000000000000000000000000008152600401611ee590614b45565b60405180910390fd5b611ef781612579565b50565b611f0261208a565b60005b82829050811015611fa357600060156000858585818110611f2957611f28613d9f565b5b9050602002016020810190611f3e9190613742565b73ffffffffffffffffffffffffffffffffffffffff1673ffffffffffffffffffffffffffffffffffffffff16815260200190815260200160002060006101000a81548160ff021916908360ff1602179055508080611f9b90613dfd565b915050611f05565b505050565b60007f80ac58cd000000000000000000000000000000000000000000000000000000007bffffffffffffffffffffffffffffffffffffffffffffffffffffffff1916827bffffffffffffffffffffffffffffffffffffffffffffffffffffffff1916148061207357507f5b5e139f000000000000000000000000000000000000000000000000000000007bffffffffffffffffffffffffffffffffffffffffffffffffffffffff1916827bffffffffffffffffffffffffffffffffffffffffffffffffffffffff1916145b80612083575061208282612b7f565b5b9050919050565b612092612174565b73ffffffffffffffffffffffffffffffffffffffff166120b06116ed565b73ffffffffffffffffffffffffffffffffffffffff1614612106576040517f08c379a00000000000000000000000000000000000000000000000000000000081526004016120fd90614bb1565b60405180910390fd5b565b60008073ffffffffffffffffffffffffffffffffffffffff166004600084815260200190815260200160002060009054906101000a900473ffffffffffffffffffffffffffffffffffffffff1673ffffffffffffffffffffffffffffffffffffffff1614159050919050565b600033905090565b816006600083815260200190815260200160002060006101000a81548173ffffffffffffffffffffffffffffffffffffffff021916908373ffffffffffffffffffffffffffffffffffffffff160217905550808273ffffffffffffffffffffffffffffffffffffffff166121ef8361155f565b73ffffffffffffffffffffffffffffffffffffffff167f8c5be1e5ebec7d5bd14f71427d1e84f3dd0314c0f7b2291e5b200ac8c7c3b92560405160405180910390a45050565b600061224082612108565b61227f576040517f08c379a000000000000000000000000000000000000000000000000000000000815260040161227690614c43565b60405180910390fd5b600061228a8361155f565b90508073ffffffffffffffffffffffffffffffffffffffff168473ffffffffffffffffffffffffffffffffffffffff1614806122f957508373ffffffffffffffffffffffffffffffffffffffff166122e184610d06565b73ffffffffffffffffffffffffffffffffffffffff16145b8061230a57506123098185611de3565b5b91505092915050565b8273ffffffffffffffffffffffffffffffffffffffff166123338261155f565b73ffffffffffffffffffffffffffffffffffffffff1614612389576040517f08c379a000000000000000000000000000000000000000000000000000000000815260040161238090614cd5565b60405180910390fd5b600073ffffffffffffffffffffffffffffffffffffffff168273ffffffffffffffffffffffffffffffffffffffff16036123f8576040517f08c379a00000000000000000000000000000000000000000000000000000000081526004016123ef90614d67565b60405180910390fd5b612403838383612be9565b61240e60008261217c565b6001600560008573ffffffffffffffffffffffffffffffffffffffff1673ffffffffffffffffffffffffffffffffffffffff168152602001908152602001600020600082825461245e91906141c5565b925050819055506001600560008473ffffffffffffffffffffffffffffffffffffffff1673ffffffffffffffffffffffffffffffffffffffff16815260200190815260200160002060008282546124b59190614705565b92505081905550816004600083815260200190815260200160002060006101000a81548173ffffffffffffffffffffffffffffffffffffffff021916908373ffffffffffffffffffffffffffffffffffffffff160217905550808273ffffffffffffffffffffffffffffffffffffffff168473ffffffffffffffffffffffffffffffffffffffff167fddf252ad1be2c89b69c2b068fc378daa952ba7f163c4a11628f55a4df523b3ef60405160405180910390a4612574838383612cfb565b505050565b6000600c60009054906101000a900473ffffffffffffffffffffffffffffffffffffffff16905081600c60006101000a81548173ffffffffffffffffffffffffffffffffffffffff021916908373ffffffffffffffffffffffffffffffffffffffff1602179055508173ffffffffffffffffffffffffffffffffffffffff168173ffffffffffffffffffffffffffffffffffffffff167f8be0079c531659141344cd1fd0a4f28419497f9722a3daafe3b4186f6b6457e060405160405180910390a35050565b3273ffffffffffffffffffffffffffffffffffffffff1661265e612174565b73ffffffffffffffffffffffffffffffffffffffff16146126b4576040517f08c379a00000000000000000000000000000000000000000000000000000000081526004016126ab90614dd3565b60405180910390fd5b600073ffffffffffffffffffffffffffffffffffffffff168273ffffffffffffffffffffffffffffffffffffffff1603612723576040517f08c379a000000000000000000000000000000000000000000000000000000000815260040161271a90614e3f565b60405180910390fd5b60008111612766576040517f08c379a000000000000000000000000000000000000000000000000000000000815260040161275d90614ed1565b60405180910390fd5b8060035410156127ab576040517f08c379a00000000000000000000000000000000000000000000000000000000081526004016127a290614f63565b60405180910390fd5b6000600354905060005b8281101561284a5760006127c98584612d00565b90506127d58582612d6e565b826127df90614f83565b92506001600560008773ffffffffffffffffffffffffffffffffffffffff1673ffffffffffffffffffffffffffffffffffffffff16815260200190815260200160002060008282546128319190614705565b92505081905550508061284390613dfd565b90506127b5565b5080600381905550505050565b8173ffffffffffffffffffffffffffffffffffffffff168373ffffffffffffffffffffffffffffffffffffffff16036128c5576040517f08c379a00000000000000000000000000000000000000000000000000000000081526004016128bc90614ff8565b60405180910390fd5b80600760008573ffffffffffffffffffffffffffffffffffffffff1673ffffffffffffffffffffffffffffffffffffffff16815260200190815260200160002060008473ffffffffffffffffffffffffffffffffffffffff1673ffffffffffffffffffffffffffffffffffffffff16815260200190815260200160002060006101000a81548160ff0219169083151502179055508173ffffffffffffffffffffffffffffffffffffffff168373ffffffffffffffffffffffffffffffffffffffff167f17307eab39ab6107e8899845ad3d59bd9653f200f220920489ca2b5937696c31836040516129b691906135be565b60405180910390a3505050565b6129ce848484612313565b6129da84848484612e38565b612a19576040517f08c379a0000000000000000000000000000000000000000000000000000000008152600401612a109061508a565b60405180910390fd5b50505050565b6060600d8054612a2e90613e74565b80601f0160208091040260200160405190810160405280929190818152602001828054612a5a90613e74565b8015612aa75780601f10612a7c57610100808354040283529160200191612aa7565b820191906000526020600020905b815481529060010190602001808311612a8a57829003601f168201915b5050505050905090565b606060006001612ac084612fbf565b01905060008167ffffffffffffffff811115612adf57612ade613a87565b5b6040519080825280601f01601f191660200182016040528015612b115781602001600182028036833780820191505090505b509050600082602001820190505b600115612b74578080600190039150507f3031323334353637383961626364656600000000000000000000000000000000600a86061a8153600a8581612b6857612b676150aa565b5b04945060008503612b1f575b819350505050919050565b60007f01ffc9a7000000000000000000000000000000000000000000000000000000007bffffffffffffffffffffffffffffffffffffffffffffffffffffffff1916827bffffffffffffffffffffffffffffffffffffffffffffffffffffffff1916149050919050565b612bf4838383613112565b600073ffffffffffffffffffffffffffffffffffffffff168373ffffffffffffffffffffffffffffffffffffffff1603612c3657612c3181613117565b612c75565b8173ffffffffffffffffffffffffffffffffffffffff168373ffffffffffffffffffffffffffffffffffffffff1614612c7457612c738382613160565b5b5b600073ffffffffffffffffffffffffffffffffffffffff168273ffffffffffffffffffffffffffffffffffffffff1603612cb757612cb2816132cd565b612cf6565b8273ffffffffffffffffffffffffffffffffffffffff168273ffffffffffffffffffffffffffffffffffffffff1614612cf557612cf4828261339e565b5b5b505050565b505050565b600080833a434244600143612d1591906141c5565b403089604051602001612d2f9897969594939291906150f2565b6040516020818303038152906040528051906020012060001c905060008382612d589190615170565b9050612d64818561341d565b9250505092915050565b612d7a60008383612be9565b816004600083815260200190815260200160002060006101000a81548173ffffffffffffffffffffffffffffffffffffffff021916908373ffffffffffffffffffffffffffffffffffffffff160217905550808273ffffffffffffffffffffffffffffffffffffffff16600073ffffffffffffffffffffffffffffffffffffffff167fddf252ad1be2c89b69c2b068fc378daa952ba7f163c4a11628f55a4df523b3ef60405160405180910390a4612e3460008383612cfb565b5050565b6000612e598473ffffffffffffffffffffffffffffffffffffffff166134e7565b15612fb2578373ffffffffffffffffffffffffffffffffffffffff1663150b7a02612e82612174565b8786866040518563ffffffff1660e01b8152600401612ea494939291906151f6565b6020604051808303816000875af1925050508015612ee057506040513d601f19601f82011682018060405250810190612edd9190615257565b60015b612f62573d8060008114612f10576040519150601f19603f3d011682016040523d82523d6000602084013e612f15565b606091505b506000815103612f5a576040517f08c379a0000000000000000000000000000000000000000000000000000000008152600401612f519061508a565b60405180910390fd5b805181602001fd5b63150b7a0260e01b7bffffffffffffffffffffffffffffffffffffffffffffffffffffffff1916817bffffffffffffffffffffffffffffffffffffffffffffffffffffffff191614915050612fb7565b600190505b949350505050565b600080600090507a184f03e93ff9f4daa797ed6e38ed64bf6a1f010000000000000000831061301d577a184f03e93ff9f4daa797ed6e38ed64bf6a1f0100000000000000008381613013576130126150aa565b5b0492506040810190505b6d04ee2d6d415b85acef8100000000831061305a576d04ee2d6d415b85acef810000000083816130505761304f6150aa565b5b0492506020810190505b662386f26fc10000831061308957662386f26fc10000838161307f5761307e6150aa565b5b0492506010810190505b6305f5e10083106130b2576305f5e10083816130a8576130a76150aa565b5b0492506008810190505b61271083106130d75761271083816130cd576130cc6150aa565b5b0492506004810190505b606483106130fa57606483816130f0576130ef6150aa565b5b0492506002810190505b600a8310613109576001810190505b80915050919050565b505050565b600a80549050600b600083815260200190815260200160002081905550600a81908060018154018082558091505060019003906000526020600020016000909190919091505550565b6000600161316d84611610565b61317791906141c5565b905060006009600084815260200190815260200160002054905081811461325c576000600860008673ffffffffffffffffffffffffffffffffffffffff1673ffffffffffffffffffffffffffffffffffffffff168152602001908152602001600020600084815260200190815260200160002054905080600860008773ffffffffffffffffffffffffffffffffffffffff1673ffffffffffffffffffffffffffffffffffffffff168152602001908152602001600020600084815260200190815260200160002081905550816009600083815260200190815260200160002081905550505b6009600084815260200190815260200160002060009055600860008573ffffffffffffffffffffffffffffffffffffffff1673ffffffffffffffffffffffffffffffffffffffff16815260200190815260200160002060008381526020019081526020016000206000905550505050565b60006001600a805490506132e191906141c5565b90506000600b60008481526020019081526020016000205490506000600a838154811061331157613310613d9f565b5b9060005260206000200154905080600a838154811061333357613332613d9f565b5b906000526020600020018190555081600b600083815260200190815260200160002081905550600b600085815260200190815260200160002060009055600a80548061338257613381615284565b5b6001900381819060005260206000200160009055905550505050565b60006133a983611610565b905081600860008573ffffffffffffffffffffffffffffffffffffffff1673ffffffffffffffffffffffffffffffffffffffff168152602001908152602001600020600083815260200190815260200160002081905550806009600084815260200190815260200160002081905550505050565b6000806002600085815260200190815260200160002054905060008082036134475784905061344b565b8190505b600060018561345a91906141c5565b90506000600260008381526020019081526020016000205490508187146134ba57600081036134a0578160026000898152602001908152602001600020819055506134b9565b8060026000898152602001908152602001600020819055505b5b600081146134da5760026000838152602001908152602001600020600090555b8294505050505092915050565b6000808273ffffffffffffffffffffffffffffffffffffffff163b119050919050565b6000604051905090565b600080fd5b600080fd5b60007fffffffff0000000000000000000000000000000000000000000000000000000082169050919050565b6135538161351e565b811461355e57600080fd5b50565b6000813590506135708161354a565b92915050565b60006020828403121561358c5761358b613514565b5b600061359a84828501613561565b91505092915050565b60008115159050919050565b6135b8816135a3565b82525050565b60006020820190506135d360008301846135af565b92915050565b6135e2816135a3565b81146135ed57600080fd5b50565b6000813590506135ff816135d9565b92915050565b60006020828403121561361b5761361a613514565b5b6000613629848285016135f0565b91505092915050565b600080fd5b600080fd5b600080fd5b60008083601f84011261365757613656613632565b5b8235905067ffffffffffffffff81111561367457613673613637565b5b6020830191508360208202830111156136905761368f61363c565b5b9250929050565b600080602083850312156136ae576136ad613514565b5b600083013567ffffffffffffffff8111156136cc576136cb613519565b5b6136d885828601613641565b92509250509250929050565b600073ffffffffffffffffffffffffffffffffffffffff82169050919050565b600061370f826136e4565b9050919050565b61371f81613704565b811461372a57600080fd5b50565b60008135905061373c81613716565b92915050565b60006020828403121561375857613757613514565b5b60006137668482850161372d565b91505092915050565b600060ff82169050919050565b6137858161376f565b82525050565b60006020820190506137a0600083018461377c565b92915050565b600081519050919050565b600082825260208201905092915050565b60005b838110156137e05780820151818401526020810190506137c5565b60008484015250505050565b6000601f19601f8301169050919050565b6000613808826137a6565b61381281856137b1565b93506138228185602086016137c2565b61382b816137ec565b840191505092915050565b6000602082019050818103600083015261385081846137fd565b905092915050565b6000819050919050565b61386b81613858565b811461387657600080fd5b50565b60008135905061388881613862565b92915050565b6000602082840312156138a4576138a3613514565b5b60006138b284828501613879565b91505092915050565b6138c481613704565b82525050565b60006020820190506138df60008301846138bb565b92915050565b600080604083850312156138fc576138fb613514565b5b600061390a8582860161372d565b925050602061391b85828601613879565b9150509250929050565b61392e81613858565b82525050565b60006020820190506139496000830184613925565b92915050565b60008060006060848603121561396857613967613514565b5b60006139768682870161372d565b93505060206139878682870161372d565b925050604061399886828701613879565b9150509250925092565b600081519050919050565b600082825260208201905092915050565b6000819050602082019050919050565b6139d781613858565b82525050565b60006139e983836139ce565b60208301905092915050565b6000602082019050919050565b6000613a0d826139a2565b613a1781856139ad565b9350613a22836139be565b8060005b83811015613a53578151613a3a88826139dd565b9750613a45836139f5565b925050600181019050613a26565b5085935050505092915050565b60006020820190508181036000830152613a7a8184613a02565b905092915050565b600080fd5b7f4e487b7100000000000000000000000000000000000000000000000000000000600052604160045260246000fd5b613abf826137ec565b810181811067ffffffffffffffff82111715613ade57613add613a87565b5b80604052505050565b6000613af161350a565b9050613afd8282613ab6565b919050565b600067ffffffffffffffff821115613b1d57613b1c613a87565b5b613b26826137ec565b9050602081019050919050565b82818337600083830152505050565b6000613b55613b5084613b02565b613ae7565b905082815260208101848484011115613b7157613b70613a82565b5b613b7c848285613b33565b509392505050565b600082601f830112613b9957613b98613632565b5b8135613ba9848260208601613b42565b91505092915050565b600060208284031215613bc857613bc7613514565b5b600082013567ffffffffffffffff811115613be657613be5613519565b5b613bf284828501613b84565b91505092915050565b60008060408385031215613c1257613c11613514565b5b6000613c208582860161372d565b9250506020613c31858286016135f0565b9150509250929050565b600067ffffffffffffffff821115613c5657613c55613a87565b5b613c5f826137ec565b9050602081019050919050565b6000613c7f613c7a84613c3b565b613ae7565b905082815260208101848484011115613c9b57613c9a613a82565b5b613ca6848285613b33565b509392505050565b600082601f830112613cc357613cc2613632565b5b8135613cd3848260208601613c6c565b91505092915050565b60008060008060808587031215613cf657613cf5613514565b5b6000613d048782880161372d565b9450506020613d158782880161372d565b9350506040613d2687828801613879565b925050606085013567ffffffffffffffff811115613d4757613d46613519565b5b613d5387828801613cae565b91505092959194509250565b60008060408385031215613d7657613d75613514565b5b6000613d848582860161372d565b9250506020613d958582860161372d565b9150509250929050565b7f4e487b7100000000000000000000000000000000000000000000000000000000600052603260045260246000fd5b7f4e487b7100000000000000000000000000000000000000000000000000000000600052601160045260246000fd5b6000613e0882613858565b91507fffffffffffffffffffffffffffffffffffffffffffffffffffffffffffffffff8203613e3a57613e39613dce565b5b600182019050919050565b7f4e487b7100000000000000000000000000000000000000000000000000000000600052602260045260246000fd5b60006002820490506001821680613e8c57607f821691505b602082108103613e9f57613e9e613e45565b5b50919050565b7f4552433732313a20617070726f76656420717565727920666f72206e6f6e657860008201527f697374656e7420746f6b656e0000000000000000000000000000000000000000602082015250565b6000613f01602c836137b1565b9150613f0c82613ea5565b604082019050919050565b60006020820190508181036000830152613f3081613ef4565b9050919050565b7f4552433732313a20617070726f76616c20746f2063757272656e74206f776e6560008201527f7200000000000000000000000000000000000000000000000000000000000000602082015250565b6000613f936021836137b1565b9150613f9e82613f37565b604082019050919050565b60006020820190508181036000830152613fc281613f86565b9050919050565b7f4552433732313a20617070726f76652063616c6c6572206973206e6f74206f7760008201527f6e6572206e6f7220617070726f76656420666f7220616c6c0000000000000000602082015250565b60006140256038836137b1565b915061403082613fc9565b604082019050919050565b6000602082019050818103600083015261405481614018565b9050919050565b7f4552433732313a207472616e736665722063616c6c6572206973206e6f74206f60008201527f776e6572206e6f7220617070726f766564000000000000000000000000000000602082015250565b60006140b76031836137b1565b91506140c28261405b565b604082019050919050565b600060208201905081810360008301526140e6816140aa565b9050919050565b7f455243373231456e756d657261626c653a206f776e657220696e646578206f7560008201527f74206f6620626f756e6473000000000000000000000000000000000000000000602082015250565b6000614149602b836137b1565b9150614154826140ed565b604082019050919050565b600060208201905081810360008301526141788161413c565b9050919050565b600081905092915050565b50565b600061419a60008361417f565b91506141a58261418a565b600082019050919050565b60006141bb8261418d565b9150819050919050565b60006141d082613858565b91506141db83613858565b92508282039050818111156141f3576141f2613dce565b5b92915050565b7f455243373231456e756d657261626c653a20676c6f62616c20696e646578206f60008201527f7574206f6620626f756e64730000000000000000000000000000000000000000602082015250565b6000614255602c836137b1565b9150614260826141f9565b604082019050919050565b6000602082019050818103600083015261428481614248565b9050919050565b60008190508160005260206000209050919050565b60006020601f8301049050919050565b600082821b905092915050565b6000600883026142ed7fffffffffffffffffffffffffffffffffffffffffffffffffffffffffffffffff826142b0565b6142f786836142b0565b95508019841693508086168417925050509392505050565b6000819050919050565b600061433461432f61432a84613858565b61430f565b613858565b9050919050565b6000819050919050565b61434e83614319565b61436261435a8261433b565b8484546142bd565b825550505050565b600090565b61437761436a565b614382818484614345565b505050565b5b818110156143a65761439b60008261436f565b600181019050614388565b5050565b601f8211156143eb576143bc8161428b565b6143c5846142a0565b810160208510156143d4578190505b6143e86143e0856142a0565b830182614387565b50505b505050565b600082821c905092915050565b600061440e600019846008026143f0565b1980831691505092915050565b600061442783836143fd565b9150826002028217905092915050565b614440826137a6565b67ffffffffffffffff81111561445957614458613a87565b5b6144638254613e74565b61446e8282856143aa565b600060209050601f8311600181146144a1576000841561448f578287015190505b614499858261441b565b865550614501565b601f1984166144af8661428b565b60005b828110156144d7578489015182556001820191506020850194506020810190506144b2565b868310156144f457848901516144f0601f8916826143fd565b8355505b6001600288020188555050505b505050505050565b7f4552433732313a206f776e657220717565727920666f72206e6f6e657869737460008201527f656e7420746f6b656e0000000000000000000000000000000000000000000000602082015250565b60006145656029836137b1565b915061457082614509565b604082019050919050565b6000602082019050818103600083015261459481614558565b9050919050565b7f4552433732313a2062616c616e636520717565727920666f7220746865207a6560008201527f726f206164647265737300000000000000000000000000000000000000000000602082015250565b60006145f7602a836137b1565b91506146028261459b565b604082019050919050565b60006020820190508181036000830152614626816145ea565b9050919050565b7f4d696e74696e6720697320706175736564000000000000000000000000000000600082015250565b60006146636011836137b1565b915061466e8261462d565b602082019050919050565b6000602082019050818103600083015261469281614656565b9050919050565b7f496e76616c6964206d696e74207175616e746974790000000000000000000000600082015250565b60006146cf6015836137b1565b91506146da82614699565b602082019050919050565b600060208201905081810360008301526146fe816146c2565b9050919050565b600061471082613858565b915061471b83613858565b925082820190508082111561473357614732613dce565b5b92915050565b7f4e6f7420656e6f75676820737570706c79000000000000000000000000000000600082015250565b600061476f6011836137b1565b915061477a82614739565b602082019050919050565b6000602082019050818103600083015261479e81614762565b9050919050565b7f4d696e74696e672069732063757272656e746c79206f70656e206f6e6c79207460008201527f6f20686f6c6465727320616e64206775657374206c6973740000000000000000602082015250565b60006148016038836137b1565b915061480c826147a5565b604082019050919050565b60006020820190508181036000830152614830816147f4565b9050919050565b600061484282613858565b915061484d83613858565b925082820261485b81613858565b9150828204841483151761487257614871613dce565b5b5092915050565b7f496e73756666696369656e742045544800000000000000000000000000000000600082015250565b60006148af6010836137b1565b91506148ba82614879565b602082019050919050565b600060208201905081810360008301526148de816148a2565b9050919050565b7f496e73756666696369656e74206d696e74732072656d61696e696e6700000000600082015250565b600061491b601c836137b1565b9150614926826148e5565b602082019050919050565b6000602082019050818103600083015261494a8161490e565b9050919050565b7f4552433732314d657461646174613a2055524920717565727920666f72206e6f60008201527f6e6578697374656e7420746f6b656e0000000000000000000000000000000000602082015250565b60006149ad602f836137b1565b91506149b882614951565b604082019050919050565b600060208201905081810360008301526149dc816149a0565b9050919050565b600081905092915050565b60006149f9826137a6565b614a0381856149e3565b9350614a138185602086016137c2565b80840191505092915050565b60008154614a2c81613e74565b614a3681866149e3565b94506001821660008114614a515760018114614a6657614a99565b60ff1983168652811515820286019350614a99565b614a6f8561428b565b60005b83811015614a9157815481890152600182019150602081019050614a72565b838801955050505b50505092915050565b6000614aae82866149ee565b9150614aba82856149ee565b9150614ac68284614a1f565b9150819050949350505050565b7f4f776e61626c653a206e6577206f776e657220697320746865207a65726f206160008201527f6464726573730000000000000000000000000000000000000000000000000000602082015250565b6000614b2f6026836137b1565b9150614b3a82614ad3565b604082019050919050565b60006020820190508181036000830152614b5e81614b22565b9050919050565b7f4f776e61626c653a2063616c6c6572206973206e6f7420746865206f776e6572600082015250565b6000614b9b6020836137b1565b9150614ba682614b65565b602082019050919050565b60006020820190508181036000830152614bca81614b8e565b9050919050565b7f4552433732313a206f70657261746f7220717565727920666f72206e6f6e657860008201527f697374656e7420746f6b656e0000000000000000000000000000000000000000602082015250565b6000614c2d602c836137b1565b9150614c3882614bd1565b604082019050919050565b60006020820190508181036000830152614c5c81614c20565b9050919050565b7f4552433732313a207472616e736665722066726f6d20696e636f72726563742060008201527f6f776e6572000000000000000000000000000000000000000000000000000000602082015250565b6000614cbf6025836137b1565b9150614cca82614c63565b604082019050919050565b60006020820190508181036000830152614cee81614cb2565b9050919050565b7f4552433732313a207472616e7366657220746f20746865207a65726f2061646460008201527f7265737300000000000000000000000000000000000000000000000000000000602082015250565b6000614d516024836137b1565b9150614d5c82614cf5565b604082019050919050565b60006020820190508181036000830152614d8081614d44565b9050919050565b7f436f6e7472616374732063616e6e6f74206d696e740000000000000000000000600082015250565b6000614dbd6015836137b1565b9150614dc882614d87565b602082019050919050565b60006020820190508181036000830152614dec81614db0565b9050919050565b7f4552433732313a206d696e7420746f20746865207a65726f2061646472657373600082015250565b6000614e296020836137b1565b9150614e3482614df3565b602082019050919050565b60006020820190508181036000830152614e5881614e1c565b9050919050565b7f455243373231723a206e65656420746f206d696e74206174206c65617374206f60008201527f6e6520746f6b656e000000000000000000000000000000000000000000000000602082015250565b6000614ebb6028836137b1565b9150614ec682614e5f565b604082019050919050565b60006020820190508181036000830152614eea81614eae565b9050919050565b7f455243373231723a206d696e74696e67206d6f726520746f6b656e732074686160008201527f6e20617661696c61626c65000000000000000000000000000000000000000000602082015250565b6000614f4d602b836137b1565b9150614f5882614ef1565b604082019050919050565b60006020820190508181036000830152614f7c81614f40565b9050919050565b6000614f8e82613858565b915060008203614fa157614fa0613dce565b5b600182039050919050565b7f4552433732313a20617070726f766520746f2063616c6c657200000000000000600082015250565b6000614fe26019836137b1565b9150614fed82614fac565b602082019050919050565b6000602082019050818103600083015261501181614fd5565b9050919050565b7f4552433732313a207472616e7366657220746f206e6f6e20455243373231526560008201527f63656976657220696d706c656d656e7465720000000000000000000000000000602082015250565b60006150746032836137b1565b915061507f82615018565b604082019050919050565b600060208201905081810360008301526150a381615067565b9050919050565b7f4e487b7100000000000000000000000000000000000000000000000000000000600052601260045260246000fd5b6000819050919050565b6150ec816150d9565b82525050565b600061010082019050615108600083018b6138bb565b615115602083018a613925565b6151226040830189613925565b61512f6060830188613925565b61513c6080830187613925565b61514960a08301866150e3565b61515660c08301856138bb565b61516360e0830184613925565b9998505050505050505050565b600061517b82613858565b915061518683613858565b925082615196576151956150aa565b5b828206905092915050565b600081519050919050565b600082825260208201905092915050565b60006151c8826151a1565b6151d281856151ac565b93506151e28185602086016137c2565b6151eb816137ec565b840191505092915050565b600060808201905061520b60008301876138bb565b61521860208301866138bb565b6152256040830185613925565b818103606083015261523781846151bd565b905095945050505050565b6000815190506152518161354a565b92915050565b60006020828403121561526d5761526c613514565b5b600061527b84828501615242565b91505092915050565b7f4e487b7100000000000000000000000000000000000000000000000000000000600052603160045260246000fdfea2646970667358221220572e5f73d8e97fb3052d700073509e55734fd8c899e777436505fd38fe21a60164736f6c63430008130033",
  "immutableReferences": {
    "1768": [
      {
        "length": 32,
        "start": 7588
      }
    ]
  },
  "source": "import \"@openzeppelin/contracts/token/ERC721/IERC721.sol\";\nimport \"@openzeppelin/contracts/utils/introspection/ERC165.sol\";\nimport \"@openzeppelin/contracts/token/ERC721/IERC721Receiver.sol\";\nimport \"@openzeppelin/contracts/token/ERC721/extensions/IERC721Enumerable.sol\";\nimport \"@openzeppelin/contracts/token/ERC721/extensions/IERC721Metadata.sol\";\nimport \"@openzeppelin/contracts/utils/Address.sol\";\nimport \"@openzeppelin/contracts/utils/Context.sol\";\nimport \"@openzeppelin/contracts/utils/Strings.sol\";\nimport \"@openzeppelin/contracts/access/Ownable.sol\";\nimport \"./ERC721R.sol\";\n\npragma solidity ^0.8.0;\n\n/**\n * @dev This implements an optional extension of {ERC721} defined in the EIP that adds\n * enumerability of all the token ids in the contract as well as all token ids owned by each\n * account.\n */\nabstract contract ERC721Enumerable is ERC721r, IERC721Enumerable {\n    // Mapping from owner to list of owned token IDs\n    mapping(address => mapping(uint256 => uint256)) private _ownedTokens;\n\n    // Mapping from token ID to index of the owner tokens list\n    mapping(uint256 => uint256) private _ownedTokensIndex;\n\n    // Array with all token ids, used for enumeration\n    uint256[] private _allTokens;\n\n    // Mapping from token id to position in the allTokens array\n    mapping(uint256 => uint256) private _allTokensIndex;\n\n    /**\n     * @dev See {IERC165-supportsInterface}.\n     */\n    function supportsInterface(\n        bytes4 interfaceId\n    ) public view virtual override(IERC165, ERC721r) returns (bool) {\n        return\n            interfaceId == type(IERC721Enumerable).interfaceId ||\n            super.supportsInterface(interfaceId);\n    }\n\n    /**\n     * @dev See {IERC721Enumerable-tokenOfOwnerByIndex}.\n     */\n    function tokenOfOwnerByIndex(\n        address owner,\n        uint256 index\n    ) public view virtual override returns (uint256) {\n        require(\n            index < ERC721r.balanceOf(owner),\n            \"ERC721Enumerable: owner index out of bounds\"\n        );\n        return _ownedTokens[owner][index];\n    }\n\n    /**\n     * @dev See {IERC721Enumerable-totalSupply}.\n     */\n    function totalSupply()\n        public\n        view\n        virtual\n        override(ERC721r, IERC721Enumerable)\n        returns (uint256)\n    {\n        return _allTokens.length;\n    }\n\n    /**\n     * @dev See {IERC721Enumerable-tokenByIndex}.\n     */\n    function tokenByIndex(\n        uint256 index\n    ) public view virtual override returns (uint256) {\n        require(\n            index < ERC721Enumerable.totalSupply(),\n            \"ERC721Enumerable: global index out of bounds\"\n        );\n        return _allTokens[index];\n    }\n\n    /**\n     * @dev Hook that is called before any token transfer. This includes minting\n     * and burning.\n     *\n     * Calling conditions:\n     *\n     * - When `from` and `to` are both non-zero, ``from``'s `tokenId` will be\n     * transferred to `to`.\n     * - When `from` is zero, `tokenId` will be minted for `to`.\n     * - When `to` is zero, ``from``'s `tokenId` will be burned.\n     * - `from` cannot be the zero address.\n     * - `to` cannot be the zero address.\n     *\n     * To learn more about hooks, head to xref:ROOT:extending-contracts.adoc#using-hooks[Using Hooks].\n     */\n    function _beforeTokenTransfer(\n        address from,\n        address to,\n        uint256 tokenId\n    ) internal virtual override {\n        super._beforeTokenTransfer(from, to, tokenId);\n\n        if (from == address(0)) {\n            _addTokenToAllTokensEnumeration(tokenId);\n        } else if (from != to) {\n            _removeTokenFromOwnerEnumeration(from, tokenId);\n        }\n        if (to == address(0)) {\n            _removeTokenFromAllTokensEnumeration(tokenId);\n        } else if (to != from) {\n            _addTokenToOwnerEnumeration(to, tokenId);\n        }\n    }\n\n    /**\n     * @dev Private function to add a token to this extension's ownership-tracking data structures.\n     * @param to address representing the new owner of the given token ID\n     * @param tokenId uint256 ID of the token to be added to the tokens list of the given address\n     */\n    function _addTokenToOwnerEnumeration(address to, uint256 tokenId) private {\n        uint256 length = ERC721r.balanceOf(to);\n        _ownedTokens[to][length] = tokenId;\n        _ownedTokensIndex[tokenId] = length;\n    }\n\n    /**\n     * @dev Private function to add a token to this extension's token tracking data structures.\n     * @param tokenId uint256 ID of the token to be added to the tokens list\n     */\n    function _addTokenToAllTokensEnumeration(uint256 tokenId) private {\n        _allTokensIndex[tokenId] = _allTokens.length;\n        _allTokens.push(tokenId);\n    }\n\n    /**\n     * @dev Private function to remove a token from this extension's ownership-tracking data structures. Note that\n     * while the token is not assigned a new owner, the `_ownedTokensIndex` mapping is _not_ updated: this allows for\n     * gas optimizations e.g. when performing a transfer operation (avoiding double writes).\n     * This has O(1) time complexity, but alters the order of the _ownedTokens array.\n     * @param from address representing the previous owner of the given token ID\n     * @param tokenId uint256 ID of the token to be removed from the tokens list of the given address\n     */\n    function _removeTokenFromOwnerEnumeration(\n        address from,\n        uint256 tokenId\n    ) private {\n        // To prevent a gap in from's tokens array, we store the last token in the index of the token to delete, and\n        // then delete the last slot (swap and pop).\n\n        uint256 lastTokenIndex = ERC721r.balanceOf(from) - 1;\n        uint256 tokenIndex = _ownedTokensIndex[tokenId];\n\n        // When the token to delete is the last token, the swap operation is unnecessary\n        if (tokenIndex != lastTokenIndex) {\n            uint256 lastTokenId = _ownedTokens[from][lastTokenIndex];\n\n            _ownedTokens[from][tokenIndex] = lastTokenId; // Move the last token to the slot of the to-delete token\n            _ownedTokensIndex[lastTokenId] = tokenIndex; // Update the moved token's index\n        }\n\n        // This also deletes the contents at the last position of the array\n        delete _ownedTokensIndex[tokenId];\n        delete _ownedTokens[from][lastTokenIndex];\n    }\n\n    /**\n     * @dev Private function to remove a token from this extension's token tracking data structures.\n     * This has O(1) time complexity, but alters the order of the _allTokens array.\n     * @param tokenId uint256 ID of the token to be removed from the tokens list\n     */\n    function _removeTokenFromAllTokensEnumeration(uint256 tokenId) private {\n        // To prevent a gap in the tokens array, we store the last token in the index of the token to delete, and\n        // then delete the last slot (swap and pop).\n\n        uint256 lastTokenIndex = _allTokens.length - 1;\n        uint256 tokenIndex = _allTokensIndex[tokenId];\n\n        // When the token to delete is the last token, the swap operation is unnecessary. However, since this occurs so\n        // rarely (when the last minted token is burnt) that we still do the swap here to avoid the gas cost of adding\n        // an 'if' statement (like in _removeTokenFromOwnerEnumeration)\n        uint256 lastTokenId = _allTokens[lastTokenIndex];\n\n        _allTokens[tokenIndex] = lastTokenId; // Move the last token to the slot of the to-delete token\n        _allTokensIndex[lastTokenId] = tokenIndex; // Update the moved token's index\n\n        // This also deletes the contents at the last position of the array\n        delete _allTokensIndex[tokenId];\n        _allTokens.pop();\n    }\n}\n\n// SPDX-License-Identifier: MIT\n\npragma solidity >=0.7.0 <0.9.0;\n\ncontract ReapersRevengeNFT is ERC721Enumerable, Ownable {\n    using Strings for uint256;\n\n    string baseURI;\n    string public baseExtension = \".json\";\n\n    bool public paused = true;\n    bool public happyHour = true;\n\n    // Long term Reaper holders can mint a bunch if they want.\n    uint256 public maxHolderMints = 250;\n\n    // Guest list gets 10.\n    uint256 public maxGuestMints = 10;\n\n    // Public mint will be limited to 5 per address.\n    uint256 public maxPublicMints = 5;\n\n    // Guests get half off!\n    uint256 public cost = 0.02 ether;\n    uint256 public guestCost = 0.01 ether;\n\n    // Holder list. A mapping to 1 indicates,\n    // that an address is a holder.\n    mapping(address => uint8) public holderList;\n\n    // Guest list. A mapping to 1 indicates,\n    // that an address is a happy hour guest.\n    mapping(address => uint8) public guestList;\n\n    // Number of mints per address\n    mapping(address => uint256) public mintList;\n\n    constructor(\n        string memory _initBaseURI\n    ) ERC721r(\"Reapers Revenge\", \"RPR\", 6660) {\n        setBaseURI(_initBaseURI);\n    }\n\n    // internal\n    function _baseURI() internal view virtual override returns (string memory) {\n        return baseURI;\n    }\n\n    // public\n    function mint(uint256 _mintAmount) public payable {\n        require(!paused, \"Minting is paused\");\n\n        require(_mintAmount > 0, \"Invalid mint quantity\");\n        require(\n            totalSupply() + _mintAmount <= maxSupply(),\n            \"Not enough supply\"\n        );\n\n        // apply mint limits for guests and public\n        if (msg.sender != owner()) {\n            bool guest = guestList[msg.sender] == 1;\n            bool holder = holderList[msg.sender] == 1;\n\n            if (happyHour) {\n                require(\n                    (guest || holder),\n                    \"Minting is currently open only to holders and guest list\"\n                );\n            }\n\n            // Holders and guests get the same price.\n            if (guest || holder) {\n                require(\n                    msg.value >= guestCost * _mintAmount,\n                    \"Insufficient ETH\"\n                );\n            } else {\n                require(msg.value >= cost * _mintAmount, \"Insufficient ETH\");\n            }\n\n            uint256 maxMints = (guest ? maxGuestMints : maxPublicMints);\n            if (holder) {\n                maxMints = maxHolderMints;\n            }\n\n            require(\n                mintList[msg.sender] + _mintAmount <= maxMints,\n                \"Insufficient mints remaining\"\n            );\n        }\n\n        mintList[msg.sender] += _mintAmount;\n        _mintRandom(msg.sender, _mintAmount);\n    }\n\n    // Returns number of Reapers an address can still mint.\n    // Max number of mints available per address is determined\n    // by (1) whether a happy hour is going on and (3) whether the\n    // address is a happy hour guest.\n    // This method does not check if minting is paused.\n    function mintsRemaining(address addr) public view returns (uint256) {\n        bool guest = guestList[addr] == 1;\n        bool holder = holderList[addr] == 1;\n\n        if (addr == owner()) {\n            return maxHolderMints;\n        }\n\n        if (happyHour && !guest && !holder) {\n            return 0;\n        }\n\n        uint256 maxMints = (guest ? maxGuestMints : maxPublicMints);\n        if (holder) {\n            maxMints = maxHolderMints;\n        }\n\n        if (mintList[addr] >= maxMints) {\n            return 0;\n        } else {\n            return maxMints - mintList[addr];\n        }\n    }\n\n    function tokenURI(\n        uint256 tokenId\n    ) public view virtual override returns (string memory) {\n        require(\n            _exists(tokenId),\n            \"ERC721Metadata: URI query for nonexistent token\"\n        );\n\n        string memory currentBaseURI = _baseURI();\n        return\n            bytes(currentBaseURI).length > 0\n                ? string(\n                    abi.encodePacked(\n                        currentBaseURI,\n                        tokenId.toString(),\n                        baseExtension\n                    )\n                )\n                : \"\";\n    }\n\n    function walletOfOwner(\n        address _owner\n    ) public view returns (uint256[] memory) {\n        uint256 ownerTokenCount = balanceOf(_owner);\n        uint256[] memory tokenIds = new uint256[](ownerTokenCount);\n        for (uint256 i; i < ownerTokenCount; i++) {\n            tokenIds[i] = tokenOfOwnerByIndex(_owner, i);\n        }\n        return tokenIds;\n    }\n\n    function seedHolderList(address[] calldata addresses) external onlyOwner {\n        for (uint256 i = 0; i < addresses.length; i++) {\n            holderList[addresses[i]] = 1;\n        }\n    }\n\n    function removeHolderList(address[] calldata addresses) external onlyOwner {\n        for (uint256 i = 0; i < addresses.length; i++) {\n            holderList[addresses[i]] = 0;\n        }\n    }\n\n    function seedGuestList(address[] calldata addresses) external onlyOwner {\n        for (uint256 i = 0; i < addresses.length; i++) {\n            guestList[addresses[i]] = 1;\n        }\n    }\n\n    function removeGuestList(address[] calldata addresses) external onlyOwner {\n        for (uint256 i = 0; i < addresses.length; i++) {\n            guestList[addresses[i]] = 0;\n        }\n    }\n\n    function setCost(uint256 _newCost) public onlyOwner {\n        cost = _newCost;\n    }\n\n    function setGuestCost(uint256 _newGuestCost) public onlyOwner {\n        guestCost = _newGuestCost;\n    }\n\n    function setMaxGuestMintAmount(\n        uint256 _newMaxGuestMintAmount\n    ) public onlyOwner {\n        maxGuestMints = _newMaxGuestMintAmount;\n    }\n\n    function setMaxPublicMintAmount(\n        uint256 _newMaxPublicMintAmount\n    ) public onlyOwner {\n        maxPublicMints = _newMaxPublicMintAmount;\n    }\n\n    function setBaseURI(string memory _newBaseURI) public onlyOwner {\n        baseURI = _newBaseURI;\n    }\n\n    function setBaseExtension(\n        string memory _newBaseExtension\n    ) public onlyOwner {\n        baseExtension = _newBaseExtension;\n    }\n\n    function pause(bool _state) public onlyOwner {\n        paused = _state;\n    }\n\n    function setHappyHour(bool _state) public onlyOwner {\n        happyHour = _state;\n    }\n\n    function withdraw() public payable onlyOwner {\n        (bool os, ) = payable(owner()).call{value: address(this).balance}(\"\");\n        require(os);\n    }\n}\n",
  "sourcePath": "/home/quest/src/reapersnft/contracts/contracts/ReapersRevengeNFT.sol",
  "compiler": {
    "name": "solc",
    "version": "0.8.19+commit.7dd6d404.Emscripten.clang"
  },
  "schemaVersion": "3.4.13",
  "updatedAt": "2023-05-03T03:51:36.040Z",
  "devdoc": {
    "events": {
      "Approval(address,address,uint256)": {
        "details": "Emitted when `owner` enables `approved` to manage the `tokenId` token."
      },
      "ApprovalForAll(address,address,bool)": {
        "details": "Emitted when `owner` enables or disables (`approved`) `operator` to manage all of its assets."
      },
      "Transfer(address,address,uint256)": {
        "details": "Emitted when `tokenId` token is transferred from `from` to `to`."
      }
    },
    "kind": "dev",
    "methods": {
      "approve(address,uint256)": {
        "details": "See {IERC721-approve}."
      },
      "balanceOf(address)": {
        "details": "See {IERC721-balanceOf}."
      },
      "getApproved(uint256)": {
        "details": "See {IERC721-getApproved}."
      },
      "isApprovedForAll(address,address)": {
        "details": "See {IERC721-isApprovedForAll}."
      },
      "name()": {
        "details": "See {IERC721Metadata-name}."
      },
      "owner()": {
        "details": "Returns the address of the current owner."
      },
      "ownerOf(uint256)": {
        "details": "See {IERC721-ownerOf}."
      },
      "renounceOwnership()": {
        "details": "Leaves the contract without owner. It will not be possible to call `onlyOwner` functions anymore. Can only be called by the current owner. NOTE: Renouncing ownership will leave the contract without an owner, thereby removing any functionality that is only available to the owner."
      },
      "safeTransferFrom(address,address,uint256)": {
        "details": "See {IERC721-safeTransferFrom}."
      },
      "safeTransferFrom(address,address,uint256,bytes)": {
        "details": "See {IERC721-safeTransferFrom}."
      },
      "setApprovalForAll(address,bool)": {
        "details": "See {IERC721-setApprovalForAll}."
      },
      "supportsInterface(bytes4)": {
        "details": "See {IERC165-supportsInterface}."
      },
      "symbol()": {
        "details": "See {IERC721Metadata-symbol}."
      },
      "tokenByIndex(uint256)": {
        "details": "See {IERC721Enumerable-tokenByIndex}."
      },
      "tokenOfOwnerByIndex(address,uint256)": {
        "details": "See {IERC721Enumerable-tokenOfOwnerByIndex}."
      },
      "tokenURI(uint256)": {
        "details": "See {IERC721Metadata-tokenURI}."
      },
      "totalSupply()": {
        "details": "See {IERC721Enumerable-totalSupply}."
      },
      "transferFrom(address,address,uint256)": {
        "details": "See {IERC721-transferFrom}."
      },
      "transferOwnership(address)": {
        "details": "Transfers ownership of the contract to a new account (`newOwner`). Can only be called by the current owner."
      }
    },
    "version": 1
  },
  "userdoc": {
    "kind": "user",
    "methods": {},
    "version": 1
  }
}